:012550001377
:012551001475
:012552002662
:01255300C4C3
:01255400176F
:012555002065
:012556000084
:012557000182
:012558002C56
:01255900FE83
:01255a000080
:01255b00007F
:01255c00007E
:01255d00413C
:01255e001A62
:01255f00E596
:012560000179
:0125610086F3
:012562000078
:012563000077
:012564002353
:012565004B2A
:012566000074
:012567003B38
:012568000072
:012569003B36
:01256a00056B
:01256b00006F
:01256c009CD2
:01256d000766
:01256e00FF6D
:01256f00FF6C
:01257000006A
:012571000069
:012572000068
:012573000067
:012574000066
:012575000065
:012576000064
:012577000063
:012578000062
:012579000061
:01257a000060
:01257b00005F
:01257c00005E
:01257d000558
:01257e00005C
:01257f00005B
:01258000005A
:01258100FF5A
:01258200FF59
:012583000057
:012584000056
:012585000055
:012586000054
:012587000053
:012588000052
:012589000051
:01258a000050
:01258b00004F
:01258c00004E
:01258d00004D
:01258e00004C
:01258f00004B
:012590000545
:012591000049
:012592000048
:012593000047
:01259400FF47
:01259500FF46
:012596000044
:012597000043
:012598000042
:012599000041
:01259a000040
:01259b00003F
:01259c00003E
:01259d00003D
:01259e00003C
:01259f00003B
:0125a000003A
:0125a1000039
:0125a2000038
:0125a3000532
:0125a4000036
:0125a5000035
:0125a6000034
:0125a7000132
:0125a8000032
:0125a9000031
:0125aa0075BB
:0125ab00002F
:0125ac004EE0
:0125ad00002D
:0125ae0046E6
:0125af00002B
:0125b00046E4
:0125b1000029
:0125b20046E2
:0125b3000621
:0125b4000026
:0125b5001E07
:0125b6000024
:0125b7000023
:0125b8000022
:0125b9000021
:0125ba000020
:0125bb00001F
:0125bc00001E
:0125bd00001D
:0125be00001C
:0125bf00001B
:0125c000001A
:0125c1000019
:0125c2000C0C
:0125c300A077
:0125c40050C6
:0125c5000114
:0125c6002CE8
:0125c7000013
:0125c800C84A
:0125c9000011
:0125ca000010
:0125cb00010E
:0125cc008688
:0125cd000607
:0125ce00000C
:0125cf005AB1
:0125d0000307
:0125d10052B7
:0125d2000206
:0125d3000502
:0125d4000303
:0125d5000302
:106A290012784F1270C21269581280CE1266BE12C5
:106A3900547E127EF81276E912736F127E49128023
:106A49002C127820126E24127A09122E03123E1388
:106A5900127E97124EAC900129E020E202D21D90DD
:106A69000302E0FF900300E0B5071B900180E0FE00
:106A7900A3E0FF900183E0FCA3E0FD900186E0FA2A
:076A8900A3E0FB12384322D9
:106D8100126A2975C13C126DD3125D721269C1126A
:106D91006C177FA77D08127F4D127521127D0E128F
:106DA1006C761280A412154B126001125EC5126E30
:106DB100BF1225D61267A8124DA6126FA012612428
:106DC100124EAC12563B126817124B6112805B00D7
:026DD10080B18F
:10784F00126B56127EF890255212787600902553BF
:10785F0012787600902554E493FF127FA7009025AD
:0E786F0055E493FF027FA7E493FF127FA72248
:106B5600E4F5B8F5A8F588F589F598438901758AAD
:106B6600B3758CFED28C438910758BD9758DD9C2BD
:106B76008EC288C28AC2ABD2A9759D03F59375945D
:106B86000C7580FB75913375920C7590FBF59575B8
:106B960096F075A03F75B10875B2B075B07775B34C
:106BA6000C75B48C75C00DF5C9F5CA75C830D2AF71
:016BB60022BC
:106DD300438901D28CD2A9E4F587000000007589AC
:106DE30021D28ED2ACD2AFF59375940C75913375D5
:106DF300920CF5957596F075B10875B2B075B30C34
:106E030075B48CF5C9F5CA759D0375A2207873E630
:106E1300B4FF0D20310A75DC40E4F5FCC292C2C711
:016E2300224C
:1070C200E49001ACF075C13CE4F587AF87EF20E5B1
:1070D20005E4F58780030080EC122BB575C13CC333
:1070E2007842E6945618E6940040089001ACE00419
:1070F200F08005E49001ACF09001ACE0C394C8408C
:0771020003026B560080D56B
:107EF800759850758E40758920758BD9758DD9D236
:067F08008ED2ACD2AF22C4
:0E7FA700C2ACC2998F993099FDC299D2AC221A
:107BC300EF4E6021000000000000000000000000F4
:107BD3000000000000000000000000000000EF1F94
:067BE30070DE1E80DB22B3
:10673600C37815E6940118E6940022E6FE08E6788A
:1067460047FFE6FC08E6FDD39FEC9E22900118E089
:10675600FF3395E0FEEF22F608F608F608F608F68F
:1067660022787F7600D2B5D293D2B4C23E22ED9F74
:10677600F6EC9E18F622FFA60608A60722FFE43EC0
:10678600FED3781BE69F18E69E227C007D06020D4E
:106796004BAFBDEF26F618E436F622E6FE08E6FF16
:0267A6004E2281
:1076E900E49002FBF09002F7F0A3F0C23FA3F0C2CE
:1076F9003BC23CD23AC241C240A3F0C23D9002FE15
:10770900F09002FCF0A3F0C23E7832F6C242900239
:05771900FFF018F6224C
:0B8050008FBCE4F5BDF5BE43BC8822E8
:1079320053BCE77830126797783306E6C394064063
:1079420019E4F6782FE6FE08E6FF1267907841A662
:0B7952000608A607E4782FF608F622CE
:1028D60053BCE77858126797AFBDEF75F004A4FFB5
:1028E600AEF0ADBEEF4D783926F618EE36F6782EF8
:1028F60006E6C394065003022BB4E4F67857126733
:10290600A17007783DF608F6801CC3EF9406EE9496
:10291600005009783D7600087601800A12679078A3
:102926003DA60608A607E47857F608F67838126733
:10293600A170077859F608F6801CC3EF9406EE944A
:1029460000500978597600087601800A1267907857
:1029560059A60608A607E47838F608F67859E6FE7A
:1029660008E6783B26F618EE36F6783C06E6C3947B
:102976000A5003022BB4E4F6783A1267A17007787E
:102986005DF608F68020C3EF940AEE9400500978AD
:102996005D7600087601800E7C007D0A120D4B786C
:1029A6005DA60608A607E4783AF608F6201503029F
:1029B6002BB4300B03022BB4784FE6FE08E67853AF
:1029C60012677C784BE6FE08E6784F12677C7847FC
:1029D600E6FE08E6FF784BA60608A6077843E6FE5D
:1029E60008E6FF7847A60608A6077834E6FE08E656
:1029F600FF7843EEF6FE08EFF6FF785DE6FC08E6A4
:102A0600FD7834ECF6FC08EDF6D39FEC9E40137986
:102A160035E7784496FF19E718967814F608A6075E
:102A26008006E47814F608F67847E6FE08E678436A
:102A3600126747400778171267748006E47816F61F
:102A460008F6784B126741400778191267748006BA
:102A5600E47818F608F6784FE6FE08E6FF783412B2
:102A66006748400BED9F781BF6EC9E18F68006E44F
:102A7600781AF608F6784F1267414016D3EF94029B
:102A8600EE9400400DED9F781DF6EC9E18F6D26888
:102A96008008E4781CF608F6C26878B2E6FFD3949C
:102AA6001A5023E4781412675D0812675D7853F6AE
:102AB60008F6784FF608F6784BF608F67847F608E3
:102AC600F67843F608F690011DE020E203022BB4E7
:102AD600787AE66003022BB4787EE66003022BB4B4
:102AE600EFD3941A5003022B7178B2E6943E507BD2
:102AF600306878302C411267364070781712673983
:102B06004069781912673940621267522408FFE457
:102B16003EFE781AE6FA08E6FBD39FEA9E404C088A
:102B2600E6FE08E6FF7C007D05120D39C3EB9FEA41
:102B36009E4038D21F8034126736402F78171267AE
:102B46003940281267522404FFE43EFE781A1267C1
:102B560048401808E6FE08E67802C333CE33CED8DE
:102B6600F9FFC3ED9FEC9E4002D21F78B2E6D394E4
:102B76003E403B302C2012673740337817126739B6
:102B8600402C7819126739402512675224071267BC
:102B960083401BD21F2212673640137817126739FB
:0E2BA600400C12675224031267834002D21FB4
:012BB40022FE
:107788007832E61460091460122402701B8014E534
:10779800BC30E4031279327FE0800AE5BC30E403B0
:1077A8001228D67FE1128050783206E6D394024040
:0477B80002E4F622CF
:107B4E00203D239002FEE004F090018FE075F003DB
:107B5E00A4FF9002FEE0D39FE5F06480F874809855
:077B6E004004D23DE4F022C7
:106C17009002F7E0C3941E4004E4F0D23F9002F8DC
:106C2700E0C394364004E4F0D2419002FBE0C39401
:106C370096403BE0246AF0D23BB23A303A137831BF
:106C470006E6C39405400AE4F67873E6B4FF02C289
:106C57001D9002F9E004F0E0C394144011E4F0D26F
:0F6C67003CA3E004F0E0943C4004E4F0D240226F
:0B805B00C23BC23CC240C23FC24122F7
:0300030002790679
:10790600C0E0C083C082C0D075D000C000C212D211
:107916005D9002E37405F0A374DCF0787F7600C214
:0C79260089D000D0D0D082D083D0E032D5
:03000B0002555D3E
:10555D00C0E0C0F0C083C082C0D075D000C000C014
:10556D0001C002C003C004C005C006C007758AB3E0
:10557D00758CFE9002FBE004F09002F7E004F0A3BE
:10558D00E004F012419E124668127B4E126AF3122D
:10559D006D2E12778820313BC37842E6948518E64C
:1055AD009400401B9002FFE094FF5003E004F09044
:1055BD0002FFE0D39402401B7403F0C242801490AA
:1055CD0002FFE0D394004003E014F09002FFE0707E
:1055DD0002D242900129E030E621305D1E20311BC0
:1055ED0020B2182031159002E374FFF5F0120DB6BC
:1055FD0045F07007C25D12676BD25FC37842E694C7
:10560D004718E69400500C75DC40C2A71280C7C243
:10561D00B4D23ED007D006D005D004D003D002D0EE
:0E562D0001D000D0D0D082D083D0F0D0E032B7
:03001300027F6108
:107F6100C0D075D000C000C212126767C28BD000AA
:037F7100D0D0323B
:03002300026F0B5E
:106F0B00C0E0C0F0C083C082C0D075D000C000C04C
:106F1B0001C002C003C004C005C006C007309808FA
:106F2B00C298201203124C87309905C299127D30FA
:106F3B00D007D006D005D004D003D002D001D000AA
:0B6F4B00D0D0D082D083D0F0D0E03254
:03008300027EB04A
:107EB000C0D075D000C000126767758700538FBFB0
:087EC000438F40D000D0D03206
:0B80660074922FF582E43402F58322AF
:106E7200128066E0FE541FFDEE20E70FEDB4050818
:106E8200EE44804440FE80050D80027D0FEE30E727
:106E920006ED4480FD8004ED547FFDEE30E606ED04
:106EA2004440FD8004ED54BFFDEE30E506ED442084
:0C6EB200FD8004ED54DFFD128066EDF061
:016EBE0022B1
:106FEA00128066E0FE541FFDEE20E704E4FD8008EF
:106FFA00DD06EE547F4420FEEE30E706ED4480FDC8
:10700A008004ED547FFDEE30E606ED4440FD800439
:10701A00ED54BFFDEE30E506ED4420FD8004ED544D
:07702A00DFFD128066EDF0AE
:01703100223C
:106C7600E49001ABF09001ABE0FFC39421504E12BB
:106C86008066E09001AAF030E71DE030E60954BFC7
:106C9600F0A3E0FF121AF09001ABE0FF120F9B90F9
:106CA60001ABE0FF127E649001AAE030E50954DFF3
:106CB600F0A3E0FF1248F79001AAE0FFA3E02492B8
:0D6CC600128069EFF09001ABE004F080A8AF
:016CD300229E
:107E6400EF640A6014303B1130310E302A0B90025B
:0A7E7400F0740175F0F4120DA02265
:107D0E00126A90120026126097E4FF20C005126ED0
:107D1E00728003126FEA7F0120CD03026E72126F22
:027D2E00EA2247
:104FB20090028DE0FE90028EE07C002400FDEC3E2B
:104FC200FC9002ECE09002EEFEE07A002400FFEAA0
:104FD2003ECFC39DFBEF9CFA90010AE025E0FF90D3
:104FE2000109E033FE7C007D0A020D4BFEE07C00ED
:104FF2002400FFEC3EFEC3EB9FFBEA9EFA90010AFF
:10500200E025E0FF900109E033FE7D0A120D4B7CA2
:10501200007D03120D4BC3EB9FEA9E229002ECE04F
:10502200FE9002EEE090028D7C002400FDEC3EFC3E
:10503200E0227859E6FC08E6FDE4120B43A804A935
:1050420005AA06AB0722C3780AE6940218E6940082
:10505200229001AAE0240BFFE433FE7808E62290B6
:105062000112E0FCE4120B487B8F7AC27975783F1B
:1050720002091FFEE07A002400FBEA3EFAD3EB9D10
:10508200EA9C22FFE433FEC3EF94FFEE6480948037
:1050920022FBC3EF9B7480F86E98229001AAE02451
:0C50A2000222FDC3EF9D7480F86E98227E
:107E4900E4780DF618F67811F608F6780EF608F6C5
:0B7E5900C258C255C25708F6C25A2298
:10655100C257C258C2569002EC7410F09002EE7409
:10656100FEF07F021272229002E27401F0D215C293
:1065710023E478A1F608F69002ABE020E70EA3E051
:1065810020E7099002AAE020E702D221D25ED222BE
:10659100127F98E478B2F6787476FF787AF6786F9D
:1065A100F6787EF67881F6786AF69002C6740AF07B
:1065B1009002BFE054FAF09002C0E05499F09001CB
:0A65C10029E030E002D20A0280BF98
:104DA60020154D787AE67048900185E0FCE4120BF8
:104DB600487B9A7A997919783F12091FC004C00571
:104DC600C006C007125034D007D006D005D0041252
:104DD6000AC5400F781006E6D39464400AE4F6D27A
:104DE600578004E47810F6205703024E90024E9046
:104DF600302C3678B2E6D3941A5003024E901250F5
:104E060061C004C005C006C007125034D007D006E2
:104E1600D005D004120AC5600D400B780B06E6D308
:104E2600943240668054024E8C900109E0C313FE12
:104E3600A3E013FF124FE7EF24FEFFEE3410FE90BF
:104E460002EEE0FD9002ECE02DFDE433FCC3ED9FA5
:104E5600EC9E4036125061C004C005C006C0071261
:104E66005034D007D006D005D004120AC5601740CA
:104E760015780B06E6D394324010E4F6D258900229
:104E86006F7404F08004E4780BF6305818D255C2DB
:104E9600581280BF7F021272229002E27405F090CF
:064EA60002C3F0C20B2262
:106D2E007813E675F003A4FFAEF0780CE606C39F69
:106D3E00EE6480F87480984039E4780CF6780EE6AC
:106D4E00FE08E6FF7811EEF608EFF6AC06AD0790FA
:106D5E0002ECE0FE9002EEE0FBEBFF780EEEF6FEAC
:106D6E0008EFF69DFFEE9CFE1280447809A60608F9
:036D7E00A6072243
:1077F00030542CC25475D902E4F5E9F5F975DC4230
:1078000075FCFFD2DE302C047FFF80027FF0780809
:10781000A607D25A90018FE07813F6C234C22A220A
:1074A9003056387808768775FC8720342E20312BA2
:1074B900202C28201D22900293E020E71B900295A2
:1074C900E0FF30E708900254E06403600B90017E0E
:0C74D900E030E107EF30E70312655122BC
:1047B700302A030248F690011DE020E0030248F684
:1047C700301B030248F620003A20472B90026EE088
:1047D700543C702F9002B4E0540C70279002B5E05F
:1047E700540F701F900294E020E705A3E030E7071D
:1047F70090029AE020E70C200A030248F6202C03D7
:104807000248F6202C72900199E020E34B90028D2C
:10481700E0FE90028EE09002EC12502A9002EE1217
:10482700507550030248F690028DE090028E124FA9
:10483700EE500302489D124FB2EF25E0FFEE33FE24
:1048470012501150030248B7124FB2C3EB9FEA9EB2
:1048570040030248F60248CD124FB2C3EB9FEA9ECF
:1048670040030248F62041030248F675DC42E5FCA6
:10487700C39496507A0248F0900199E020E34C12D5
:10488700501E90028E12507540659002ECE0900227
:10489700EE124FEE50057813763C2212501E90020E
:1048A7008E124FCAEF25E0FFEE33FE12501150056E
:1048B700781376282212501EFE90028E124FCBC319
:1048C700EB9FEA9E5029781376142212501EFE9011
:1048D700028E124FCBC3EB9FEA9E501330411075E7
:1048E700DC42E5FCC394965006740825FCF5FC22CF
:10364C0030560302384220310302382F203D03024A
:02365C00382F05
:10365E00C374FF95FC9001AAF0C23D78B2E6FFD389
:10366E00941A4002C25A3054030237F0302A030231
:10367E0037F0900199E020E30302370720424B78A0
:10368E0041E6FC08E6FDC39485EC94004022EF94DD
:10369E001A500D12505312509340030237F0803DD2
:1036AE0012509D12505912509340030237F080422F
:1036BE00C3ED9482EC940040030237F09001AAE02F
:1036CE00940350030237F00237B878B2E6C3941A67
:1036DE0050121250531250A440030237F0E0240649
:1036EE00F00237F012509D1250591250A4400302AE
:1036FE0037F0E02402F00237F020421D12504850FD
:10370E0012C37842E6948518E6940040067E007F48
:10371E000180137E007F00800D1250487E00500401
:10372E007F0180027F00EF4E6037900129E030E785
:10373E001E305A119001AAE0240A1250855022E040
:10374E002406F0801C12509D1250855014800E7865
:10375E0008E624CEFF9001AAE0C39F5004E02402A5
:10376E00F020421ED3125049500CC37842E6948288
:10377E0018E6940050067E007F0180147E007F00C4
:10378E00800ED31250497E0040047F0180027F00DC
:10379E00EF4E604EC25A90018FE0FF7813E6B507E8
:1037AE000F9001AAE0D394034038E024FEF080325B
:1037BE007809E6FE08E6FFC39405EE9400500D90DE
:1037CE0001AAE09402401BE014F08016C3EF9405AA
:1037DE00EE9400400D9001AAE0D3940B4004E02437
:1037EE00F6F0302A3190011DE030E11D7813763C61
:1037FE00D3780AE6940018E69400400D9001AAE0F2
:10380E00D394064004E024FAF09001AAE0D3940287
:10381E004004E024FEF09001AAE0FFC374FF9FF580
:01382E00FC9D
:10382F00203110202A0D75DC40C2A7E5FCF460039F
:04383F0075FCFF22F3
:0C8020001277F01274A91247B702364C18
:1071DD00D2231280BFC219E47887F6C20E7876F6F4
:1071ED0022E49002F0F0A3F02290018BE0FEA3E0E8
:1071FD00FF7C007D03020D397859E6FE08E6FFC3DA
:10720D009412EE940022F09002F6E004F022900227
:05721D00F47402F022F0
:10736F00C256C254C259C231C22A1271EEC234C2BD
:10737F0031C22EC232C22BA3F0A3F0C235C232C229
:10738F0029C230C226C227C238C239C228C22FC270
:10739F0024C225C236C237C233A3F09002F6F022C0
:0E7FB500C22E203408D22CD234E478B2F62248
:0E7FC300C22E203408C22CD234E478B2F6224A
:0880BF00C234303102D22A2242
:0780C700C2C7C2920280BF94
:0D001600AE05EF8EF0A4FFC374FF9FFF2224
:0980A400126BB71280AD028020BE
:106BB70030345C78B2E6C3946450071271EE303B10
:106BC700010678B2E6FF14600B14602724EE6026F6
:106BD7002414702AD231C22A75FCFFC2A7C22E9094
:106BE700018FE07813F6302C05D2C7C29222C2C7B4
:106BF700D29222D2542275DC40D2A7C23422EFC3EC
:106C07009414500B78B2E6FF7D0C1200168FFC220D
:0980AD00302A0575DC40C2A7224F
:10419E0020332430950A3094079002F47401801174
:1041AE0030950302431A30940302431A9002F474BA
:1041BE0002F0D23302431A9002F4E024FE604D1452
:1041CE0070030242871460791470030242E6147081
:1041DE00030242B12405600302431830950920946E
:1041EE00069002F40242E12095083094059002F404
:1041FE00807630950302431A30940302431A1272EA
:10420E001B302C04D228806BC22880673095092081
:10421E0094069002F402430A209509309406900207
:10422E00F40242AC20950302431A20940302431A6F
:10423E009002F47401F0302C04D2288002C228803F
:10424E0032309505309402806020950A2094071232
:10425E00721BC228801D30950302431A209403025C
:10426E00431A9002F4302C067406F002431A7405B9
:10427E00F0C22812721402431A30950A3094079035
:10428E0002F474018046209505209402805D2095ED
:10429E007B3094789002F4302C047406802E7405D2
:1042AE00F0806930950B3094089002F47401F08020
:1042BE005B20950A2094079002F47402800E3095CC
:1042CE004B2094489002F4302C097403127213D2CE
:1042DE002880397404F0803430950A3094079002A7
:1042EE00F47401801E20950820940512721B801C08
:1042FE003095192094169002F4302C057403F0803A
:10430E000B7404127213C2288002C2339002F6E0BC
:10431E00602B14F0202A031271EE2028109002EE6A
:10432E00E004F0E070179002ECE004F0229002EE50
:0E433E00E014F0E0B4FF069002ECE014F02270
:064668002031030247B6F9
:10466E009002ECE0FE9002EEE0FDEDFF9001A8EE70
:10467E00F0A3EFF09002F0E475F001120DA0302AD5
:10468E00331271F69002F0E0FCA3E0FDC39FEC9EA6
:10469E004004C292C2C7EF2484FFEE3403FEC3ED82
:1046AE009FEC9E50030247B6C292C2C7C22AC231C5
:1046BE001271EE221271F6EF2458FFEE3402FEC391
:1046CE009002F1E09F9002F0E09E50030247B6C2C6
:1046DE004EC200C20BD22E787AE6600302478B30B0
:1046EE001A0302478B300A0302478B90026FE09445
:1046FE0005400302478B30570302478B201907E50D
:10470E00FCC3947F401E301974E5FCC39499506D20
:10471E00127205400F900199E030E061EF9419EEAE
:10472E0094005059D3783EE6940118E69400501246
:10473E0090026F7405F0900129E030E4401271DDB3
:10474E00803B201907E5FCC3947F401E30192EE5EF
:10475E00FCC394995027127205400F900199E030D6
:10476E00E01BEF9419EE9400501390026F7406F054
:10477E00900129E030E4061271DD786AF690026F3E
:10478E00E0FF64056022EF6406601D783DE6FE08DA
:10479E00E6FFD39401EE94004008EF9405EE9400EA
:0847AE004006D22A786A760168
:0147B60022E0
:107AAE00F0C2C37F017E0022D2C37F017E002290EE
:107ABE0001B3E004F0E0C3940822D2C27F017E003D
:087ACE0022C2C27F017E0022EA
:107EC800127AC8127BC3127AB6127BC3127ACF1207
:087ED8007BC3127AAF027BC3E9
:10795D00127AAF127BC3127ACF127BC3127AB61290
:10796D007BC3127AC8127BC3A2C2E4339001B31257
:0B797D007AAE127BC3127ACF027BC3EC
:057197009001B3EFF0D0
:10719C00E4A3F09001B3E0FF30E703D38001C39286
:1071AC00C2EF25E09001B3F07F017E00127BC31289
:1071BC007AB6127BC3127AAF127BC39001B4127AE7
:1071CC00C040D0D2C2127AB6127BC3127AAF027B05
:0171DC00C3EF
:106F5600D2C2E49001ADF09001ACF09001ADE02515
:106F6600E0F0127AB6127BC39001ADE0FFA2C2E454
:106F760033FEEF4E127AAE127BC39001AC127AC08A
:106F860040D9127AC8127BC3127AB6127BC3127A20
:096F9600AF127BC39001ADE0FFD6
:016F9F0022CF
:1062C600D2C2E49001B4F0A3F09001B3F01262FDE3
:1062D600127ABD40F8C2C2126332D2C2E49001B350
:1062E600F01262FD127ABD40F8D2C21263329001FA
:0662F600B4E0FEA3E0FF8E
:1062FC00229001B5E025E0F09001B4E033F07F018D
:10630C007E00127BC3D2C37F017E00127BC3A2C26C
:10631C00E433FF9001B4E0F0A3E04FF0C2C37F017F
:10632C007E00127BC3227F017E00127BC3D2C37F0F
:10633C00017E00127BC3C2C37F017E00127BC3228D
:0577BC009001B0EFF0A8
:1077C100127EC87FD01271979001B0E0FF127197BD
:1077D100127EC87FD11271971262C69001B1EEF08C
:0E77E100A3EFF012795D9001B1E0FEA3E0FF8E
:0177EF002277
:107CC8009001AFEFF0A3EDF0127EC87FD01271974C
:107CD8009001AFE0FF1271979001B0E0FF12719729
:037CE80002795DC1
:05787D009001AAEFF0EC
:10788200127EC87FD01271979001AAE0FF12719701
:10789200127EC87FD1127197126F569001ABEFF032
:0878A20012795D9001ABE0FFDB
:0178AA0022BB
:0C710900016105016205016305016405D8
:1030240090019DE0FEA3E0FF7C007D64020D4B90C7
:103034000086E0FEA3E07C002400FFEC3EFE90014D
:10304400B1E0FCA3E0FD2290028CE02FFF90028B04
:10305400E03ECF2403FDEF3411FC9002ECE0FE903F
:1030640002EEE0227865E6FE08E6FF900117E09F95
:10307400900116E09E22900088E0FEA3E0FB7A0017
:103084002400FFEA3E22900115E075F028A4FFE534
:10309400F0C313EF137882F622CF2414CF3400FE4A
:1030A400D3ED9FEC9E22900088E0FEE42BFDEA3EE7
:1030B400FC900086E0FEA3E02400FFEA3EFEC3EF9E
:1030C4009DEE9C2290028CE02FFB90028BE03EFA56
:1030D400900199E022900086E0FEA3E0F97C0024B0
:1030E40000FFEC3ECF24ECCF34FF22C3FE9001B2AC
:1030F400E09F9001B1E09E22900105E075F00AA4E2
:10310400FFC39002C5E09FFD9002C4E095F0FCE48B
:10311400020B432E2480F582E43400F583229000D0
:1031240088E0FEA3E0227881F67872F67874F6C21D
:1031340021788BF67868F67882F6786BF62290011F
:103144008AE075F028A47870A6F008F622900109A8
:10315400E0FCA3E0FDE4120B43E4FBFA79C87842F7
:10316400020A2878A2D3E6940018E694002290027A
:1031740054E06403229002C4E0FEA3E0FF9002C284
:10318400E09F9002C1E09E229001AFE0FE64022223
:1031940090028CE024FEFD90028BE03410CD2F22AF
:1031A40090026FE0C394052290026DF09001AD226D
:1031B400E47870F608F67880F6227873E6FE640206
:1031C40022788A763C786D22FEC3ED9FEC9E22FB2A
:1031D400EBD39DEE9C2290028CE02FFF90028BE0BB
:1031E4003ECF227E007D007B01020F6F9001AFE095
:1031F4006402229001AFE064032290026D7401F036
:103204002290026D7402F022900088E0FEE42BFF0D
:10321400EA22FEC3EB9FEA9E22788BE6C3941E2229
:10322400788BE6C3940F22C24A9002B9E054EFF0BF
:013234002277
:0980B600C213C201E47878F6223D
:10547E00C2177F217A0279921231E7787376FFC2D2
:10548E001D1231B4D20D18F67888766490025474D9
:10549E0003F0E490026DF0900236F090028FF0C2AD
:1054AE000AC2007865F608F6C20BC223C20EC21BF2
:1054BE007884F6C216C20CC202C214C222788AF6D0
:1054CE00786DF6C20BC251C21FC205C218C219783E
:1054DE0083F6786CF618F67867F6787BF608F6C2DF
:1054EE0001C213C2121280B6E4787AF6786FF6789B
:1054FE007EF67881F6786AF67887F67876F6C209BF
:10550E007872F67874F6C221788BF6C2207889F616
:10551E007882F67879F67882F67877F67885F608D6
:10552E00F67869F6C211C20FC203C21CC21EC206B1
:10553E00C208900289F0A3F0A3F0A3F0C204C20740
:0F554E00900283F0A3F0C21A900290F0A3F02213
:101FA2009001AFEFF0D21DC24ED2601280BF9001FD
:101FB200AFE0FF70077873E664016009EFB4010FC8
:101FC2007873E6700A90017EE030E00312314290AD
:101FD20002ABE030E717A3E030E71290017EE03079
:101FE200E00590018A800390011512314590029418
:101FF200E030E718A3E030E713204D0C90017EE0BB
:1020020030E0091231428004789E761E900254E03C
:10201200FF640160030220BA2015030220BA304D8A
:10202200030220BA1231BE6004EEB403089001AF7D
:10203200E06404600F7873E6B4040E12318C60041D
:10204200EEB403051231C576011231BE6004EEB45E
:1020520003089001AFE06405600F7873E6B4050EE3
:1020620012318C6004EEB403051231C576031231CD
:10207200BE6004EEB403089001AFE06406600F781E
:1020820073E6B4060E12318C6004EEB4030512310D
:10209200C576051231BE6004EEB403089001AFE0CC
:1020A2006407600F7873E6B4070E12318C6004EE99
:1020B200B403051231C57607EF640360030223659A
:0C20C20020150302236530230302236570
:1020CE00C2AF12305EFD1230829001B1F0A3EFF07C
:1020DE00D2AF304D0302219C20030302219C9001BC
:1020EE00AFE0FFB408077873E664026016EFB40839
:1020FE00051231F0600D7873E6B4080F9001AFE071
:10210E00B402087875760A787D76019001AFE0FF0B
:10211E00B408077873E664036016EFB4080512314D
:10212E00F7600D7873E6B4080F9001AFE0B40308C2
:10213E007875760A787D7603787DE6FF6401600512
:10214E00EF64037049D21CEFB401081231FEE49023
:10215E00026FF0787DE6B40308123205E490026F48
:10216E00F09001B07405F09002ECE0FF787DE6FE91
:10217E002405123118EFF09001B0E004F0E01231B6
:10218E0017EDF07F021272229002E27401F0201518
:10219E0003022365C37866E6942C18E69401400387
:1021AE00022365302303022365301C0302236530AE
:1021BE004E030223659001AFE0FFB408077873E683
:1021CE0064026027EFB408051231F0601E7873E6E2
:1021DE00FFB408051231F06012EF640860030222AA
:1021EE00977873E664026003022297123033C39F1E
:1021FE00EC9E501612307A1231CC500E1230AA507C
:10220E00047F0180027F02127A331230D9123041DC
:10221E00C39FEC9E401D900086E0FEE912308212B4
:10222E00309D500F1231227C002400FFEC3E123004
:10223E00EF4014123033C39FEC9E40101231221225
:10224E0030821231CC50057F02127A33123033C3F2
:10225E009FEC9E501B12307A1230E81231CC401097
:10226E0012320C3ECF2414CF3400D31230F040146F
:10227E00123033C39FEC9E50101231221230821254
:10228E0031CC40057F01127A339001AFE0FFB408E4
:10229E00077873E664036027EFB408051231F76020
:1022AE001E7873E6FFB408051231F76012EF64086A
:1022BE0060030223657873E66403600302236512EC
:1022CE003033D39FEC9E401612307A1230A3400E5C
:1022DE001230AA50047F0280027F01127A3312302C
:1022EE0033D39FEC9E401312307A12309D500B1256
:1022FE00320C1230E71230EF5014123033D39FEC01
:10230E009E40101231221230821230A350057F01EE
:10231E00127A331230D9123041C39FEC9E401F9077
:10232E000086E0FEE912308212309D5011123122E9
:10233E007C002400FFEC3EFED31230F1501412301C
:10234E0033D39FEC9E50101231221230821230A3E2
:07235E0040057F02127A33F3
:06236500E49001AFF0223C
:104A33009001AEEFF0D2B5D293D2B41280CE1280F1
:104A4300E0EF64016003302002C322200B06200044
:104A530003300A111280BFC20BC21FC218C200C2A8
:104A630005C20AC322E412312A9002C6740AF090E6
:104A730002C37405F0D217C24FC255789D7628C27F
:104A830005C260C21812305EFDEE787BF6ED08F6C3
:104A93002013033001037878069001AEE0FF64022F
:104AA300601DEF64036018EF64046013EF64056036
:104AB3000EEF64066009EF64076004EFB408069024
:104AC30002367402F0EF64196022EF641A601DEF7E
:104AD300641B6018EF641C6013EF641D600EEF64C9
:104AE3001E6009EF641F6004EFB420069002367461
:104AF30003F0EF6003B401069002367401F07865A9
:104B0300E6FE08E6FFD312306F501A90026F74016D
:104B1300F07F021272229002E27403F09002BFE06F
:104B23004402F080079002BFE054FDF0302202C23D
:104B330023C222E4789CF6C20E786EF61231B57861
:104B430073E6B4FF0F9001AEE0F6201D05300D02B1
:0E4B5300D322C3229001AEE0FF121FA2C322A4
:107E2D009001ADEFF01231B478A7760A7810F6C252
:0C7E3D0056C2541280BFE49001ADF02248
:101AF0009001ACEFF0120F1C1C6C001C8B011D1B25
:101B0000021D46031E62041E62051E62061E620757
:101B10001F20081F75091D1B161D46171E49181C7E
:101B20006C191C8B1A1BE91B1BE91C1BE91D1BE90B
:101B30001E1B3B1F1B912000001F6D121F904003B6
:101B4000021F75201503021F751230685003021F13
:101B500075302303021F75900199E0FB20E00330EC
:101B600049067E007F0080031230249001A3E02FFD
:101B70009001A2E03E90028DF0EB20E00330490698
:101B80007E007F0080031230249001A2A3E0021B9C
:101B9000E1121F904003021F75201503021F7512EA
:101BA00030685003021F75302303021F759001999E
:101BB000E0FB20E0033049067E007F008003123006
:101BC00024123194ED3E90028DF0EB20E003304979
:101BD000067E007F00800312302490028BA3E02455
:101BE000FE2F90028EF0026453121F994003021FD1
:101BF00075201503021F751230685003021F7530DF
:101C00002303021F75126883EF24FEFDE43410FCE9
:101C1000C004C005123151C004C005C006C007127F
:101C200030FCD003D002D001D00012091F120B7C6F
:101C3000D0E02FD0E03E90028DF0126883EF24FEBA
:101C4000FFC007123151C004C005C006C0071230E2
:101C5000FCD003D002D001D00012091F120B7CD09F
:101C6000E02F90028EF0126453C24E22121F764073
:101C700003021F75201503021F75123068500302FE
:101C80001F75302303021F75021D3A121F83400384
:101C9000021F7530150B1230684006202303127F97
:101CA000C3301534900199E020E0033049067E00EE
:101CB0007F0080031230241230C820E00330490630
:101CC0007E007F008003123024EB2FFFEA12305594
:101CD0001231D35003302C0320151B2031189001F2
:101CE0007EE030E211900292E020E70A9002ACE040
:101CF00020E70312308A303103021F75900292E010
:101D000030E703021F751231A4400312308A787A3B
:101D1000E678727003760722021E42121F76400395
:101D2000021F75204D17201503021F7512306850D1
:101D300003021F75302303021F75027FB578A0765A
:101D400003789E766422121F834003021F75204D84
:101D500010301515123068401020230D127FC380FB
:101D60000878A07603789E766490017EE054026441
:101D7000016030123172602B301528203125204D42
:101D800022900199E020E0033049067E007F008028
:101D90000312302412304B1231D3500778A1760051
:101DA0000876641231A4503A301534900199E0203D
:101DB000E0033049067E007F008003123024123099
:101DC000C820E0033049067E007F008003123024E3
:101DD000EB2FFFEA1230551231D35003302C032081
:101DE0001519900254E0B4030590018A800A90010D
:101DF0007EE030E10690011512308D303103021F74
:101E000075304D03021F75900294E030E703021F06
:101E100075900254E0FF6403600A90017EE020E1C7
:101E200003021F751231A4400FEFB4030590018A1D
:101E3000800390011512308D787AE67872700376FF
:101E4000072276037881760122303103021F7590D4
:101E50000290E4F0A37428F0D21B78A876140876D8
:0A1E60001422121F994003021F759F
:101E6A00E49001ADF0304D03021F1B304C6E90011F
:101E7A00ACE024FC602E14602014601314702E90C1
:101E8A000254E0602874041231AC740CF0801E74A1
:101E9A00031231AC740AF080141232059001AD7449
:101EAA0008F080091231FE9001AD7406F09001AD80
:101EBA00E0FF7003021F759002ECE0FE74802F129F
:101ECA00311AEEF09002EEE0FE74812FF582E434CE
:101EDA0000F583EEF0789A763CC24C222015030274
:101EEA001F757865E6FE08E6FFD312306F407C2046
:101EFA002379204E769001ACE0FF640760069002D9
:101F0A0054E06006900254E06061EF24FDFF027A1B
:051F1A003378A07603FE
:101F1F00229001ACE0FF124A33504B204D04C259BE
:101F2F00800478A07603123172703B3015047877F5
:101F3F00763C30153120312E204D2B900199E02029
:101F4F00E0033049067E007F0080031230241230F8
:101F5F004B1231D3501078A176000876C822900129
:101F6F00ACE0FF124A332278A876149001ACE0FF60
:101F7F00124A332278A976149001ACE0FF124A334B
:101F8F00229001ACE0FF124A33229001ACE0FF1225
:031F9F004A3322A0
:050F9B009001ACEFF035
:100FA00078A8E6D39400400908E6D394004002D222
:100FB0001B900293E030E707900292E030E7189030
:100FC0000295E0FF30E705123172600B90017EE080
:100FD00030E17BEF30E777203171201D6E202161F9
:100FE0007882E6D39400402EE478A1F608F6303BF0
:100FF00025788216E6701F787AE6FF7019EF700A7E
:1010000090026FE06004E4F0C215C260127FDFE47A
:101010007882F61876017872E6D39400402D7881B4
:10102000E664017026303C037872167872E6701B15
:10103000787A7601127FDFD209C215E47872F680E1
:101040000AE47872F67882F61257181258C890029D
:10105000AAE030E736203130303B2DD3900291E0CA
:101060009400900290E09400401E74FFF5F0120D81
:10107000A0900290E07002A3E0700DC215127FDF15
:101080001280B6E490026FF01258C890029AE030D5
:10109000E733123172702E20312B201D287877E62D
:1010A000D394004020303B1D16E67019D203900205
:1010B0006F7408F090026DE0700BC2697B057D06CD
:1010C0007F0112760A900292E030E705A3E020E764
:1010D0001E9002ABE030E705A3E020E712900294F7
:1010E000E020E703021264A3E020E7030212642079
:1010F0001B0302125F30310302125F302103021220
:101100005C303C097874E6D39414500106203B030C
:101110000212517871E61846700302125108E61661
:10112000187001167871E61846703578A1F608F641
:10113000787AE6FF701090026FE07003201507E4E4
:1011400090026FF0C215C260EFB4010612153802AA
:101150001251787AE66003021251127FDF021251B7
:10116000900292E030E705A3E020E712900294E0BD
:1011700020E703021251A3E020E703021251787026
:10118000E6FE08E6FFC39410EE94005003021251ED
:1011900090017EE030E00590018A8003900115E027
:1011A00075F028A4FDED24FCFDE434FFFCD3EF9D95
:1011B000EE9C40030212513001030212513013031E
:1011C000021251302303021251201503021251C2A0
:1011D000AF12305EFDEDFBAA06D2AF900199E02080
:1011E000E0033049067E007F008003123024900225
:1011F00088E02FFF900287E03ECF24F1CF34FF122A
:1012000032165023900199E020E0033049067E0019
:101210007F0080031230241231DA240DCF3411FE06
:10122000D3EB9FEA9E5024900199E020E0033049DF
:10123000067E007F0080031230241231DA24F4CFBE
:1012400034101232164006D2018002D2137888760A
:10125000C87874E6B41408121538800312571812AF
:1012600058C88011900293E020E70AC21BE47884FA
:10127000F6C216C219201303300156900292E030D4
:10128000E705A3E030E70C900294E030E710A3E01C
:1012900020E70B7878E6C394034003125E209002A7
:1012A00093E030E707900292E030E714900295E077
:1012B00020E703021440900294E030E70302144058
:1012C0007878E6C39403500302144012623C02147F
:1012D000409001ACE0FFB4031990017EE054026439
:1012E00001600F900254E0B4031590028FE0640196
:1012F000600DEF6408705E1231727059201D563017
:101300001530204D2D1231674028303B0708E61676
:101310001870011678A2E618467017D24D789776A5
:101320000A789E7664900254E0B4030690028F74AB
:1013300001F078A0E6D39400401B303B1816E6700D
:1013400014789EE6600F900105E0D39400400620DB
:101350001D03E014F09001ACE06402704C78A0E64C
:10136000D394004044303B4116E6703D789EE660E1
:1013700038900288E02402FF900287E034EFFE7C80
:10138000007D0A120D39900109E0FCA3E0FD120D69
:101390004BC374FD9FFFE49EFE900105E0C39FE4F4
:1013A0009E5006201D03E004F09001ACE0FF6404B1
:1013B0006026EF64056021EF6406601C900254E033
:1013C000FF60089001ACE06407600DEF6403701FDC
:1013D0009001ACE064087017204D10303B1178A3E9
:1013E000E6600C16E67008C24E800478A076039082
:1013F0000254E0FF64016048201D45301542EF644F
:1014000002600F9001ACE0B407047F0180117F00FF
:10141000800D9001ACE0B408047F0180027F00EFF2
:10142000601E204D17303B18789AE6601316E67060
:101430000F204C0CD24C78A47664800478A07603FC
:101440009001ACE0FF120F1C148200148401148B75
:1014500002148B03148B04148B05148B06149C0745
:1014600014A90814BC0914821914841A14C41B1476
:10147000CB1C14D21D14D91E148B1F148B200000FA
:1014800014E380139001ACE0FF800C7892760108A1
:10149000762C9001ACE0FF12807180151214F89048
:1014A0000254E06401704480081214F81231727022
:1014B0003A9001ACE0FF12755C0214EBE47892F60E
:1014C00008F680271215087F0680131215087F087A
:1014D000800C1215207F0A80051215207F0C125BEC
:1014E0003180089001ACE0FF1280719001ACE064A3
:0714F000096004E4787FF6B7
:1014F700227892760108762C9001ACE0FF12807179
:10150700227892760108762C9001ACE0FF12807168
:101517009001ACE0FF12755C227892760108762C78
:101527009001ACE0FF1280719001ACE0FF12755C96
:1015370022C215787A7601127FDF78817601D20987
:041547001280B62236
:105718002021030257F0303C03788B06E478A1F689
:1057280008F690017EE0FF30E11112321D400C9026
:105738000294E030E705A3E020E764EF20E11112CE
:10574800321D400C900294E030E705A3E020E74FBB
:10575800900293E0FF30E70C900292E020E70512F8
:105768003224503BEF30E70C900292E030E705120C
:10577800321D502B900295E0FF30E70C900254E068
:10578800B40305123224501790017EE030E159909D
:105798000294E020E752EF30E74E123224404912DB
:1057A8002BB5127FD17F807A0079801231E7D22021
:1057B800E4788BF6C22112322BC24954DFF09001F3
:1057C800A2E0FFA3E0900287CFF0A3EFF0E49002FD
:1057D8008BF0A3F0D207D204C206C208C2679001B8
:0957E80099E054FDF054FBF0229D
:107B7500302023303B20789F7603788C76077894E5
:107B85007607127032D2A6788906E6C39428400695
:077B9500C2A6E4F6C22022A3
:1048F7009001ACEFF0C217E47867F6900292E020DF
:10490700E718A3E020E713A3E020E70EA3E020E7E2
:10491700092001033013031280B69001ACE0FF6455
:10492700026004EFB40307304D04E478A0F6786F13
:10493700E6600B787AE67006C21590026FF0E478AD
:104947006DF6788AF690026DF0900236F09001AC21
:10495700E0FF7873E6B5071076FFC21D200B09202C
:104967000A06200003127E2DC20EC256E47870F6A6
:1049770008F612312A9001ACE0FF120F1C49BD0066
:1049870049BD0149BD0249BD0349DF0449DF054966
:10499700DF0649E10749F30849B81849BD1949BD78
:1049A7001A49DF1B49DF1C49DF1D49DF1E00004A8A
:1049B70032C21BC25622C21BC256EFB4030F3015B8
:1049C7000C204D091231674004E4F608F6200B5B12
:1049D700200A582000558050800B900254E0700543
:1049E700789A763C2278A37614C24E22789A763C3F
:1049F7001231727036C211C20390026DF0787DF6E3
:104A0700C24EC21C7869F67885F608F69001ACE0CC
:104A1700B4080F30150C204D091231674004E4F635
:0C4A270008F6200B062000031280BF22BE
:0B8071007873E6B4FF04A607D21D22BE
:10755C00201D367873E66F70247880E6C39414503F
:10756C001C303B1930311606E6B41411E4F69001C8
:10757C0029E030E508786606E61870010630310916
:0A758C00201D06E47870F608F622D0
:1064530090028DE0FFF4606FEF606CC2AF12305EAC
:10646300FDEDFF9001B3EEF0FCA3EFF090028DE0A1
:10647300FEA3E0FBEBFF9001B5EEF0A3EFF0D2AF8C
:10648300240AFFE43E1230A3500D123179400B90E1
:1064930002B5E0540F6003127FC39001B6E024F607
:1064A300FF9001B5E034FFFEC39001B4E09F90017B
:1064B300B3E09E400D123179500B9002B5E0540FBA
:0F64C3006003127FB5D24E304703D20022C200D1
:0164D20022A7
:107A3300EF25E02484F582E43400F583E090028DA1
:107A4300F0EF25E02485F582E43400F583E090022D
:097A53008EF078A376140264534E
:10612400303B0E304C0B78A4E6600616E67002C2D3
:106134004C20130330010F30150C303B097888E6EE
:106144001670031280B6900254E06401705D788A80
:10615400E66058303B0116788AE6FF641470427892
:106164006DE6FEB401031231FEEEB40303123205F0
:10617400EEB4050690026D7403F0EEB407069002C7
:106184006D7404F07E059002ECE0FD786DE6FC127F
:106194003117EDF00E9002EEE0FDEE2C123118ED09
:0B61A400F0EF700790026DF0786DF6D0
:0161AF0022CD
:105E2000301356303B577861E6D394004001167822
:105E300061E6704912305EFDEEFAEDFBC394FEEAB6
:105E4000648094904037900199E020E00330490647
:105E50007E007F008003123024123194FFED3E1249
:105E600032164019D24A9002B9E04410F012305E66
:105E7000FDEDFFEE125EA58004786176053001200D
:105E8000303B217862E6D394004001167862E670D8
:105E90001312322B9001A2E0FFA3E0CF125EA522E5
:045EA00078627605A9
:105EA40022900287F0A3EFF01280B6D204D2067FCC
:105EB400021272229002E27401F09002C77405F09B
:015EC40022BB
:10623C0030133D303B3E7863E6D394004001167832
:10624C0063E6703012305EFDEEFCEDC394FEEC6440
:10625C00809490401FD2499002B9E04420F0ED2484
:10626C0002FEEC34EF90028BF0A3CE1262AC8004F1
:10627C0078637605300124303B257864E6D39400AE
:10628C004001167864E67017C2499002B9E054DFF9
:0F629C00F0E490028BF0A31262AC2278647605D6
:1062AB0022F01280B67F021272229002E27401F089
:0B62BB00D207D2089002C77405F02241
:10752100303B2C7873E6B4FF17786E06E6B4501042
:10753100E4F67866123169400708E61618700116FC
:1075410030310C20340978B2E6C39464500106202E
:0B7551002306202A03201502C21F227F
:0D7FDF00D21978877601D20E7876760422CA
:1058C800200E030259997887E624FE6068146076F2
:1058D80014700302598324036003025999900199B3
:1058E800E020E0033049067E007F00800312302468
:1058F8001230C820E0033049067E007F0080031282
:105908003024EB2FFFEA123055FB7A00EBD39DEEE3
:105918009C500578877604221231A44002E4F09066
:1059280002ECE0FEE42BFFEE3A9001ADF0A3EFF0BD
:10593800127FC38042303B597876E6D394004051B9
:1059480016E6704D8031C3783EE6940618E694005A
:105958004010788406E6D39432400DE4F678870642
:1059680080067884E6600116203406203103302C46
:1059780006786AE6B4011A78870622127FC3D259DC
:10598800D256C20E788706787EE6B40104786F7620
:01599800010D
:0159990022EB
:1064D3009DFDE09CC3FCED9FEE6480F8EC64809826
:1064E30022C3E49FFFE49EFEE0FCA3E0FD22E49DC3
:1064F300FDE49CFCD3EF9DEC6480F8EE648098226D
:10650300E0FEA3E0FFEE3395E0FDFC020DCC90012D
:10651300AAE0FEA3E0FFC3229001AEE0FCA3E0FDEE
:1065230022E47B04FAF9F8120EB50272679EFEE0CC
:10653300FCA3E0FDD3229002CEE09FFF9002CDE0CA
:0E6543009EFE22C39002CEE09DFD9002CD226E
:1073AF00E49002CFF0C26A9002DDF0A3F09002D118
:1073BF00120ED900000000E49002CBF0A3F090026F
:1073CF00D5120ED900000000E49002CDF0A3F0908A
:1073DF0002D9120ED9000000009002D07403F022DF
:107150007D037F6B1271817D097F191271817D041E
:107160007F1A12718CE4FD7F1B12718C7D107F1CC5
:10717000127CC87F017E00127BC37D067F1D027CCE
:10718000C8127CC87F017E00127BC322127CC87F9C
:07719000017E00127BC32207
:0680CE001271500273AFB5
:1025D6009002ECE0FE9002EEE0FDEEFAEDFB9002DA
:1025E60088E024F6FF900287E034FFFEC3EB9FEA03
:1025F6009E40030228CC900199E020E00330490672
:102606007E007F00800F90019DE0FEA3E0FF7C002E
:102616007D64120D4B90028CE02FFF90028BE03E02
:10262600CF2408CF3411FED3EB9FEA9E5003022835
:10263600CC1280DAEF70030228CC203B030228CCB0
:102646003054030228CC2031030228CC2010030288
:1026560028CC3019030228CC302A030228CC300BB0
:10266600030228CC301F030228CC3005030228CCF5
:0C2676003018030228CC2015030228CCE9
:102682007F431277BC9001AAEEF0A3EFF07F4512D0
:1026920077BC9001ACEEF0A3EFF07F471277BC90CD
:1026A20001AEEEF0A3EFF0206A459002CFE0D394A2
:1026B2000050030228819002D1120EC19001AA1289
:1026C20065039002D1120ECD9002D5120EC1900177
:1026D200AC1265039002D5120ECD9002D9120EC132
:1026E2009001AE1265039002D9120ECD022881121A
:1026F20065119002DEE09002DD1228CD900122EEFB
:10270200F0A3EFF09001AC1265149002CCE09002BD
:10271200CB1228CD900124EEF0A3EFF09001AE127F
:102722006514126539128044900126EEF0A3EFF091
:10273200900302E0FF900300E06F60030227C512DE
:1027420065119002DEE09FFF9002DDE090018012B1
:1027520065301264DA40051264F1500790011AE004
:1027620020E1479001AC1265149002CCE09FFF90EB
:1027720002CBE09001831265301264DA40051264E4
:10278200F1500790011AE020E2209001AE12651488
:102792001265399001861265321264DA40051264BC
:1027A200F1501790011AE030E3109002D0E0FF14CC
:1027B200F0EF60030228810228729002D07402F0C6
:1027C2000228811280389001AAE0FCA3E0FDC390A8
:1027D20002DEE09002DD1264D3501B1280389001B9
:1027E200AA1264E4C39002DEE09DFD9002DDE09C4B
:1027F200D31264D8500790011AE020E169128038A0
:102802009001ACE0FCA3E0FDC39002CCE09002CBCF
:102812001264D3501C1280389001AC1264E4C3904D
:1028220002CCE09DFD9002CBE09CFCD31264D95017
:102832000790011AE020E22E12803812651B126501
:10284200461264D55019128038C3E49FFFE49EFEFD
:1028520012651B126546E09CFCD31264D9501A9093
:10286200011AE030E3139002D0E0FF14F0EF700F92
:10287200D21FD2051273AF80069002D07403F0907B
:1028820002CFE064047034206A317B04FAF9F890D4
:1028920002D112652A9002DDEEF0A3EFF09002D58C
:1028A2001265249002CBEEF0A3EFF09002D91265EC
:1028B200249002CDEEF0A3EFF0D26A9002CFE0FFB7
:0A28C20004F0EFD394054002E4F0A7
:0A28CC00229FFFE09EFE12804422CE
:10711500440269F9003F40480255C6180000C330D3
:1071250004084802373F065B4F6600734050027300
:10713500C33001208718073845280000C708040810
:0471450041023500CE
:10599A00900248E0FF900247E02FFFE433FE9002B6
:1059AA0049E07C002FFFEC3EFEA3E02FFFEC3EFE19
:1059BA00A3E02FFFEC3EFEA3E02FFFEC3EFE227C8D
:1059CA00007D0A120D39900109E0FCA3E0FD120DD9
:1059DA004B900105E07C002FFFEC3E2225E0FFE022
:1059EA0033FE74732FF58274023EF583E022C247B8
:1059FA00900182E054FEF09002B4E054BFF022908D
:105A0A000109E0FEA3E0FBAA06E4F9F822A3E024D8
:105A1A0037F582E43402F583E022900243F0A3F0E2
:105A2A00227601788C76057894760522900272F0B7
:105A3A00D2ACC299C29822E4FBFA79207841020AD0
:105A4A0028D37893E6940018E69400227E007D001D
:0E5A5A007B01020F6FE0FCA3E0FDE4020B43B2
:1066BE007F0A7A02795D125A567F137A0279411255
:1066CE005A56E4900272F0789CF6C252C25390026F
:1066DE006EF0900270F0900254F090026DF0900205
:1066EE0036F0789A763C78A47664187614C24CC24A
:1066FE004EC24D7892F608F67897F678A1F608F61F
:10670E00789EF678A0F6788DF67895F608F6C2554E
:10671E00789DF6C24FC250900271F090023FF0A3E6
:08672E00F0900267F0A3F022D5
:107BE9009001B1EEF0A3EFF09001B1E0900247F0FF
:107BF9009001B1A3E0900248F0ECA3F0EDA3F0EA04
:067C0900A3F0EBA3F02242
:10634C009001ABEEF0A3EFF0A3ECF0A3EDF0A3EA19
:10635C00F0A3EBF0900254E070429001ACE025E029
:10636C00FF9001ABE033FE74552FF58274023EF5BD
:10637C0083E0FEA3E0FFC006C0079001AEE09001F1
:10638C00AD1259E6FCA3E0FD9001B0E09001AF1214
:10639C0059E6FAA3E0FBD007D00680249001ABA30A
:1063AC00E02469F582E43402F583E0FF7E0090017D
:1063BC00AD125A17FD7C009001AF125A17FB7A00F0
:0463CC00127BE92235
:0F7F9800E490026FF0789F125A2BC24FC2512211
:0C802C00127F987899760A789B760522DE
:1070320090024274FFF0900241F09002447403F017
:10704200900243F09002467498F0900245F0789FC7
:10705200E6FF7E00788CE6FD7C007894E6FB7A0001
:1070620012634C12599A7DFF120D4BAF05A3EFF03C
:08707200740C125A368F9922AA
:10760A00306925303B327899E6D39405789F400C4F
:10761A00A607788CA6057894A6038003125A2B78BD
:10762A0099E6167013760A22789FA607AF05788C1A
:09763A00A607AF037894A607220D
:104EAC0020045D900199E030E13E900105E0FFC3E4
:104EBC00900193E09FFF900192E09400FE90010915
:104ECC00E0FCA3E0FD120D397C007D0A120D4BEFC6
:104EDC0024FEFFEE3410900287F0A3EFF0D24A903C
:104EEC0002B9E04410F080189001A2E0FFA3E0901A
:104EFC000287CFF0A3EFF0C24A9002B9E054EFF072
:104F0C00300703024FA0900199E030E277900195B1
:104F1C00125A5F125A41C004C005C006C007900166
:104F2C0005E0FCE4120B48A804A905AA06AB07D0BF
:104F3C0007D006D005D00412082AC004C005C0064C
:104F4C00C007900109125A5FD003D002D001D000E3
:104F5C0012091F125A417B007AF0798778451208A2
:104F6C002E120B7C900285EEF0A3EFF02402FFEEE4
:104F7C0034EF90028BF0A3EFF0D2499002B9E044E9
:104F8C0020F08010E490028BF0A3F0C2499002B99B
:104F9C00E054DFF020140ED214900199E030E003BD
:064FAC00D21A22C21A22F3
:10563B00203B03025717300631C206304A1D90013A
:10564B0099E04402F0900288E02402FF900287E088
:10565B0034EFFE1259C9900192803A204A4A300425
:10566B0047900199E054FDF0803E30083BC2083072
:10567B004929900199E04404F090028BE0FEA3E0ED
:10568B00FF1259C9FE900195F0A3EFF07D0A120DA0
:10569B0039900195EEF0A3EFF0800D20490A300709
:1056AB0007900199E054FBF0306723C267128038F2
:1056BB00900180EEF0A3EFF0128038900183EEF0B2
:1056CB00A3EFF0128038900186EEF0A3EFF0300CD0
:1056DB001AC20C900182E030E00ED2474401F090E8
:1056EB0002B4E04440F080031259F830021EC202AB
:1056FB009002B4E0FD30E611D247900182E0440104
:0D570B00F0ED44409002B4F0221259F82253
:10798800206020205B1D20561AD2A6303C069002AB
:1079980035E004F0900235E0C39F400EC2A6D260E5
:0A79A800E4F022C2A6E4900235F0DC
:0179B20022B2
:1050AE00E4781EF6900129E020E30302518E90026F
:1050BE006FE024FE602C14602F14603514606A14A7
:1050CE00604B24056003025161D2697B011251923B
:1050DE00306003025161205B7A1251997403F00221
:1050EE005161D2697B038004D2697B041251928094
:1050FE0062D2697D011251A2206058205B55125177
:10510E00997405F09002C0E04401F08046304F03E0
:10511E00C38001D392697D021251A27F0212798857
:10512E009002C0E04402F0802A304F03C38001D3C6
:10513E0092697B017D03E4FF12760A206015205BE5
:10514E00127F021272229002E27404F09002C0E00A
:10515E004404F090026FE0FF6029303C26789BE615
:10516E00167020EF64066004E0B40506D24FD251EB
:10517E008009E490026FF0C24FC251789B760522EF
:03518E0012802C60
:1051910022E4FDFF12760A227F021272229002E2BD
:0951A100227B01E4FF12760A22D0
:1034430030150FE4900247F0A3F0A3F0A3F0A3F02C
:10345300A3F0304E0A90028DE0FE90028E80089019
:1034630002ECE0FE9002EEE0FDEDFF900267EEF06D
:10347300A3EFF020153290027174FFF090023FF039
:10348300A3F0900129E030E308E4FBFAFDFCFF80A0
:1034930007E4FBFAFDFC7F02FE12634C789CE670A6
:1034A3000302353416023534900267E0FCA3E0FDD5
:1034B300D394FEEC94105018900105E0900271F043
:1034C30075F00AA4FF90023FE5F0F0A3EFF08061EE
:1034D300ED2403FFEC34EFFE7C007D0A120F42C0A3
:1034E30006C007125A09D007D006120E159001051F
:1034F300E02F900271F0900268E02402FF900267CF
:10350300E034EFFE7C007D64120F42C006C0071258
:103513005A09D007D006120E15AD07AC0690010567
:10352300E075F00AA42DFEE5F03C90023FF0A3CE37
:10353300F0900271E0900241F0A3F0125A4B400A5E
:0D35430020000708E61618700116304C181D
:1035500078A4E69001AAF075F00584F05401F0908B
:06356000024360028068D6
:10356600806D90026DE0604524FE601314601914AE
:1035760060222403706A7407125A247B01801F7428
:103586000B125A247B0280169002437413F0A3F0A8
:103596007B03800A9002437423F0A3F07B047A0035
:1035A6007D067C007F017E0012634C8033125A4BED
:1035B6004024789716E67002760A304D0F7897E623
:1035C600D39405500790024374018005900243741A
:1035D60003F0A3F0800AE4125A24C24D90028FF041
:1035E600304D12789EE6D39400400A16E67006C265
:1035F6004D90028FF09002457498F0A3F012599AFC
:103606007DFF120D4BA3EDF090023FE0FCA3E0FD21
:10361600EC90024EF0AF05A3EFF090024EE02FFFC4
:10362600EFF404900250F0A260E433A3F0A25BE44E
:1036360033A3F0A25EE433A3F0A37455F07413121F
:063646005A367599552269
:1076430030523578ABE67030C25290026EF0900142
:107653000BF090010CF0C200C24E9002B4E0540F44
:1076630070169002B5E0540F700E900236E064017C
:097673006006E4F0FF127E2D22F6
:107D3000900272E0601B90011FE0640160139002EA
:107D400072E014F0E02441F582E43402F583E0F5BA
:027D5000992276
:104C87007F01745D2FF582E43402F583E0FE745CE6
:104C97002FF582E43402F583EEF00FEFB40AE390C8
:104CA7000266E599F090025DE0FF64D9704DA3E0DC
:104CB700FEF47047EF2EFFA3E0FE2FFFA3E0FD2FCA
:104CC700547FFFA3E06F703390011FF07891E6786F
:104CD7008FF6FF7891EEF6B5070890025FE0900235
:104CE70070F0900270E030E2047898A605D253780D
:104CF700AA7614E490025DF0A304F0900262E064E7
:104D0700D86003024D8AA3E064D87077A3E0FFF46C
:104D1700600FEF6478600AEF64666005EF642470E3
:104D270062900266E0FF900265E0FE6F70559001A9
:104D37001FF07890E6788EF6FF7890EEF6B50704C8
:104D470090026EF0900264E0FFB4FF07E490025413
:104D5700F08022EFB478089002547401F08016EFC7
:104D6700B466089002547402F0800AEFB4240690E7
:104D770002547403F0D25278AB7614E4900262F0D6
:104D8700A304F01200861265CB125398900104E039
:0F4D970030E20312746C7B017A027962026CD4F1
:1078AB009001AAEBF0AC07AF0574017E00A80708A6
:1078BB008005C333CE33CED8F9FFAD04EF5D900115
:0E78CB00AA6005E0FF026E72E0FF126FEA2273
:106A9000900236E0FF6401603DEF640360387B02E2
:106AA0007D01126AD77B03E4FD1278AB7B047D0283
:106AB000126AD77B057D031278AB7B067D04126AD0
:106AC000E57B077D051278AB7B087D06126AE57BC6
:106AD000097D071278AB2290026EE0FF1278AB902E
:106AE000026EE0FF2290026EE0FF1278AB90026E21
:036AF000E0FF22A2
:1067A8001280E0EF706520205F90011FE0FF640118
:1067B800605CEF64026038303B42788D06E6C39433
:1067C800024002E4F6788DE614601F04702E9001F2
:1067D80004E020E21090026FE07005123443801C40
:1067E80012703280171274E5801212236B800D30FC
:1067F8004102D250305005C2501244E8127643127A
:0F680800732E1250AE027F24027B751268EE22AF
:02714900C16122
:103C2C00FEE09001A4FDEDFFEEF0A3EFF022FEE02C
:103C3C00900106FDEDFFEEF0A3EFF022FEE0900107
:103C4C00A2FDEDFFEEF0A3EFF022FEE090010DFDE2
:103C5C00EDFFEEF0A3EFF022900248F0E490024763
:103C6C00F0900246F0900245F0900244F022E0FE03
:103C7C00A3E0900109FDEDFFEEF0A3EFF022E0FED2
:103C8C00A3E0900100FDEDFFEEF0A3EFF022E0FECB
:103C9C00A3E090019DFDEDFFEEF0A3EFF022F0907C
:103CAC00018BE0FCA3E0FDEC22E0FEA3E09001928E
:103CBC00FDEDFFEEF0A3EFF02293900247F090257C
:103CCC0097E493FC740193FDEC900246F0ED9002A6
:103CDC0045F022FDEDFFEEF0A3EFF022E493FF742C
:103CEC00019322FDEDFFEEF0A3EFF022E493FC74C0
:103CFC000193FDEC900245F0ED900244F022E49328
:103D0C00FC740193FDEC900247F0ED900246F0221A
:103D1C00E493FC740193FDEC900244F0ED900243AB
:103D2C00F022FDEDFFEEF0A3EFF022900188E0FE13
:103D3C00A3E0FFEE22E4900188F0A3F090018DF057
:103D4C00A3F022900180F0A3EFF022FDEDFFEEF046
:103D5C00A3EFF022900183F0A3EFF022900186F004
:103D6C00A3EFF022F0900262E0FEA3E0229001A209
:103D7C00F0A3EFF022EFF0900264E0FF22E49390C6
:103D8C000243F022740193900247F022E490025D0A
:103D9C00F0A304F022A3E0900247F022FDEDFFEE29
:103DAC00F0A3EFF02290010DE4F0A3EFF0229002CB
:103DBC0063E0FEA3E02290018DE0FEA3E022F583F8
:103DCC00E02FFFE43EFE0DED22127F74EEFF900219
:103DDC0065E06F22EFF0900263E0FF0272EDEFF00E
:103DEC00900261E0FF0272EDE493900246F022E44F
:103DFC0093900245F022E493900244F02290024406
:073E0C00F0E4900243F022F4
:107A0900123D41C264D262900119F090010BF0A3BA
:107A1900F0122BB5C263E490011FF0900122F0A38C
:0A7A2900F0A3F0A3F0A3F0A3F022F5
:102BB500902550E49390011EF0902556E4939001E2
:102BC50008F0902557123CE890018BCFF0A3EFF069
:102BD500902559E493900129F090255AE4939001AA
:102BE5002AF090255B123CE8900120CFF0A3EFF08E
:102BF50090255DE493900105F090255E123CE8CFA9
:102C0500123D79902562123CE890019DCFF0A3EF2B
:102C1500F0902564E493900185F0902565E4939008
:102C25000112F0902566123CE890011BCFF0A3EF4E
:102C3500F0902568123CE89001A4CFF0A3EFF09046
:102C4500256AE49324FB900118F090256B123CE86B
:102C5500900190CFF0A3EFF090256DE49390011DC6
:102C6500F0902560123CE8900109CFF0A3EFF090B9
:102C750025A9123CE8900106CFF0A3EFF09025AB13
:102C8500123CE89001A6CFF0A3EFF09025B4123CDA
:102C9500E8900100CFF0A3EFF09025A8E493900110
:102CA50082F09025B3E49390011AF09025AD123C83
:102CB500E8CF123D4F9025AF123CE8CF123D609012
:102CC50025B1123CE8CF123D689025A7E493900109
:102CD50004F09025B6122DE7900194EFF09025B7FA
:102CE500122DE7900197EFF09025B8122DEE900187
:102CF50098EFF09025B9122DEE90019AEFF09025FE
:102D0500BA122DF590019BEFF09025BB122DF59091
:102D1500019CEFF09025BC122DFC90019FEFF090E7
:102D250025BD122DFC9001A0EFF09025BEE493FF88
:102D35001272ED9001A1EFF09025BFE493FF12729E
:102D4500ED900114EFF09025C2E49390018FF0907F
:102D550025C3E49390017FF09025C4E49390012866
:102D6500F09025C5123CE8900116CFF0A3EFF09046
:102D750025C7E493FF123DB19025C9E49390011056
:102D8500F09025CAE493900111F09025CB123CE810
:102D9500900102CFF0A3EFF09025D2E493900113B8
:102DA500F09025CDE493900199F09025CE123CE862
:102DB500900192CFF0A3EFF09025D0123CE890015E
:102DC50095CFF0A3EFF09025D3E49390017EF0909A
:102DD50025D4E49390018AF09025D5E493900115CC
:102DE500F022E493FF1272ED22E493FF1272ED22BA
:0E2DF500E493FF1272ED22E493FF1272ED22BE
:10253C00E4FFFE7D0274412DF582E43402123DCAA3
:03254C00B40AF2DC
:01254F002269
:0D7FEC00E4900248F0123C69900243F0223C
:0A807C007402123C64900243F022EB
:107B9C009002487404F090011EE0900247F090258A
:107BAC0051123DF4902552123DFB902553123E028A
:077BBC00902554123D8922BF
:107C5B009002487405F0902555E493900247F090FC
:107C6B000108E0900246123CAA123D00900129E067
:057C7B00900243F0221D
:107A5C009002487406F090255AE493900247F090F7
:107A6C000120123CAE123CD5900105E0900244F08E
:097A7C009001A2E0900243F02207
:107D93009002487407F09001A2123DA190010912CC
:0F7DA3003CAE123CD590019D123CAE123D242205
:107AD6009002487408F0900185E0900247F090010A
:107AE60012E0900246F090011B123CAE123D00904F
:087AF60001A4E0900243F0221C
:107AFE009002487409F09001A4123DA1900118E083
:107B0E002405900246F0900190123CAE123D00907A
:087B1E00011DE0900243F0227A
:0A8086007410123C64900243F022D3
:0D7FF9009002487411123C67900243F02280
:0D8006009002487412123C67900243F02271
:107F87009002487413123C6790258193900243F046
:017F970022C7
:107DB2009002487414F0902581123D909025831210
:0F7DC2003DF4902584123CF8902586123D8922CD
:107DD1009002487415F0902586123D9090258812E6
:0F7DE1003CCD90258A123E0290258B123D8922BF
:107E0F009002487416F090258C123D0A90258E1220
:0E7E1F003CF8902590E4932405900243F02255
:107E7E009002487417F0902591123D0A90259312A6
:097E8E003DFB902594123D1C22DD
:107F39009002487418F0902596E4123CC590259952
:047F4900123D1C22A7
:107DF0009002487419F090259B123D0A90259D121F
:0F7E00003DFB90259E123E0290259F123D892248
:107C80009002487420F090259F123D909025A112FB
:107C90003CCD9025A3E4932405900244F09025A4C4
:047CA000123D8922E6
:1079B3009002487421F09025A4123D909025A612C0
:1079C3003DF4900104E0900245F0900182E09002C2
:0B79D30044F0900106E0900243F02217
:107CA4009002487422F0900106123DA19001A612A0
:107CB4003CAE123CD5900180123CAEFF900244EFE2
:047CC400123D272224
:1079DE009002487423F0900183123CAEFF90024750
:1079EE00EF123D15900186123CAEFF900245EF124C
:0B79FE003D0390011AE0900243F022CC
:10767C009002487424F0900100123CAE123D12901E
:10768C000194E0FF1272AB900245EFF0900197E08D
:10769C00FF1272AB900244EFF0900198E0FF12726F
:0776AC00AB900243EFF02256
:10707A009002487425F090019AE0FF1272AB9002D8
:10708A0047EFF090019BE0FF1272AB900246EFF0DF
:10709A0090019CE0FF1272AB900245EFF090019FC5
:1070AA00E0FF1272AB900244EFF09001A0E0FF12F1
:0870BA0072AB900243EFF022DB
:1078D9009002487426F09001A1E0FF1272AB900269
:1078E90047EFF0900114E0FF1272AB900246EFF0FF
:0D78F900E4123C7190018FE0900243F022F8
:107B26009002487427F090017FE0900247F09001A0
:107B360028E0900246F0900116123CAE123D0090ED
:087B4600010DE0900243F02262
:107C0F009002487428F090010D123DA1900110E0F0
:107C1F00900246F0900111E0900245F0900102129F
:067C2F003CAE123D2422D0
:107D52009002487429F0900199E0900247F0900156
:107D620092123CAE123CD5900195123CAE123D24CB
:017D720022EE
:107C35009002487430F0900113E0900247F09001F3
:107C45007EE0900246F090018AE0900245F09001B6
:067C550015E0123E0922B9
:0D801300900248747F123C67900243F022F7
:107CEB0090024874A1F09002ECE0900247F09002F1
:107CFB00EEE0900246F0E4123C71902584939002E2
:037D0B0043F02220
:107EE00090024874A2F09025847401123CC5900160
:087EF00022123CAE123D2422D7
:107D730090024874A3F0900124123CAE123D12907D
:107D83000126123CAE123D00785DE6900243F022DC
:107F0E0090024874A4F0785EE6900247F0E4123CCA
:067F1E006D900243F02209
:10771E0090024874A5F0E4900247F0900246F0788B
:10772E0041E6FC08E6FDE4120B437B7B7A14798E6E
:10773E00783F12091F120B7C900245EFF0A215E460
:05774E0033123E092288
:1044E800900119E004F090024A74A7F09002497410
:1044F80002F0306240900119E0C394054002E4F0F4
:10450800900119E014601614601914601C14601FDF
:104518002404600302464B127CEB02464B127EE0F9
:1045280002464B127D7302464B127F0E02464B1217
:10453800771E02464B30640302464B900119E0C3D4
:10454800941E4002E4F0900119E0120F1C45B300DC
:1045580045B90145BF0245C50345CB0445D00545CE
:10456800D50645DA0745DF0845E40945E90A45EE79
:104578000B45F30C45F80D45FD0E46020F46071096
:10458800460C11461112461613461B1446201546B2
:104598002516462A17462F1846341946391A463E14
:1045A8001B46431C46481D0000464B127FEC024642
:1045B8004B12807C02464B127B9C02464B127C5B62
:1045C80002464B127A5C807B127D938076127AD6F3
:1045D8008071127AFE806C1280868067127FF98063
:1045E80062128006805D127F878058127DB28053E8
:1045F800127DD1804E127E0F8049127E7E80441239
:104608007F39803F127DF0803A127C8080351279A4
:10461800B38030127CA4802B1279DE802612767C3F
:10462800802112707A801C1278D98017127B26801C
:1046380012127C0F800D127D528008127C35800387
:1046480012801312253CEE900242F012253CEF90A6
:104658000241F09002727409F090024AE0F5992242
:1074E50090012BE04401FFF090024C7482F0900271
:1074F5004BF090024AEFF0900249F0E4900248F018
:10750500123C69900243F0900242F0900241F090E3
:0C7515000272740BF090024CE0F5992219
:1072ED00EF70037F1522EFB401037F0B22EFB40281
:1072FD00037F0C22EFB403037F0D22EFB404037F51
:10730D000E22EFB405037F0F22EFB406037F102288
:10731D00EFB407037F1122EFB408037F12227F150C
:01732D00223D
:1072AB00EFB415037F0022EFB40B037F0122EFB481
:1072BB000C037F0222EFB40D037F0322EFB40E0306
:1072CB007F0422EFB40F037F0522EFB410037F0678
:1072DB0022EFB411037F0722EFB412037F08227F42
:0272EB0000227F
:107A85007E03EEC39F5020745E2EF582E43402F52A
:107A950083E0FD745D2EF582E43402F583E0B505DF
:087AA50002D3220E0E80DBC3A8
:017AAD0022B6
:10746C0090025DE064C27034A3E064C2702EA3E0AD
:10747C00B4FF297F08127A855022E490011FF09006
:10748C000261E090010BF0900263E090010CF0902F
:0D749C0002367402F078AC7614123D98228E
:1060970090010BE0FF900194E0FBE4FD1278AB90D8
:1060A700010BE0FF9001977D011261039001987D3C
:1060B7000212610390019A7D0312611990019B7D81
:1060C7000412611990019C7D0512610E90019FE0F9
:1060D700FBE4FD1278AB90010CE0FF9001A07D017D
:1060E70012610E9001A1E0FB7D021278AB90010CCA
:1060F700E0FF900114E0FB7D030278ABE0FB127830
:10610700AB90010BE0FF22E0FB1278AB90010CE0B3
:0D611700FF22E0FB1278AB90010BE0FF22AD
:107F7400E4FFFEFD745D2DF582E43402123DCAB4C3
:027F840008F201
:017F860022D8
:103235007E007F527D007B017A01792C120F6F9001
:103245000108E090012C123CAA90012DF0EDA3F0AD
:10325500900129E090012FF090012AE0900130F0D3
:10326500900120123CAE900131F0EDA3F090011ECB
:10327500E0900133F090018FE0900134F0900185EA
:10328500E0900135F0900112E0900136F090011BBD
:10329500123CAE900137F0EDA3F09001A4123CAEC4
:1032A500900139F0EDA3F0900118E090013BF0900A
:1032B5000190123CAE90013CF0EDA3F090011DE0B1
:1032C50090013EF0900109123CAE90013FF0EDA354
:1032D500F0900106123CAE900141F0EDA3F0900193
:1032E500A6123CAE900143F0EDA3F090011AE090D8
:1032F5000145F0900100123CAE900146F0EDA3F0BF
:1033050090017FE0900148F0900128E0900149F09C
:10331500900104E090014AF0900182E090014BF0A9
:10332500900194E090014CF0900197E090014DF0F0
:10333500900198E090014EF090019AE090014FF0D5
:1033450090019BE0900150F090019CE0900151F0BC
:1033550090019FE0900152F09001A0E0900153F0A0
:103365009001A1E0900154F0900114E0900155F016
:10337500900180A3E0900156F0900183A3E09001B5
:1033850057F0900186A3E0900158F0900116E09067
:103395000159F0900116A3E090015AF090019DE0CB
:1033A50090015BF090019DA3E090015CF090010518
:1033B500E090015DF09001A2E090015EF09001A225
:1033C500A3E090015FF090010DE0900160F09001A5
:1033D5000DA3E0900161F0900110E0900162F09082
:1033E5000111E0900163F0900102E0900177F09007
:1033F5000102A3E0900178F0900199E0900179F045
:10340500900192E090017AF0900192A3E090017B07
:10341500F0900195E090017CF0900195A3E090017A
:103425007DF0900113E090017EF0E0A3F090018A19
:0E343500E0900180F0900115E0900181F022FE
:103FE20090012CE0900108F090012DE0FEA3E090FA
:103FF200018B123C3190012FE0900129F0900130A9
:10400200E090012AF0900131E0FEA3E0900120123D
:104012003C3F900133E090011EF0900134E09001AA
:104022008FF0900135E0900185F0900136E090012B
:1040320012F0900137E0FEA3E090011B123C4D907C
:104042000139E0A3123C2C90013BE0900118F09062
:10405200013CE0FEA3E0900190123C5B90013EE047
:1040620090011DF090013F123C7A900141E0A312B1
:104072003C3A900143E0FEA3E09001A6123C8190FD
:104082000145E090011AF0900146123C8A900148E5
:10409200E090017FF0900149E0900128F090014A00
:1040A200E0900104F090014BE0900182F090014C0D
:1040B200E0900194F090014DE0900197F090014E54
:1040C200E0900198F090014FE090019AF090015039
:1040D200E090019BF0900151E090019CF090015220
:1040E200E090019FF0900153E09001A0F090015404
:1040F200E09001A1F0900155E0900114F09001567A
:10410200E0FFE4123D4F900157E0FFE4123D609062
:104112000158E0FFE4123D68900159E0FEA3E090EF
:104122000116123C9190015B123C9A90015DE09065
:104132000105F090015EE0A3123C48900160E0A30B
:10414200123C56900162E0900110F0900163E09001
:104152000111F0900177E0FEA3E0900102123CA170
:10416200900179E0900199F090017A123CB59001AA
:104172007CE0FEA3E0900195123CBC90017EE090B1
:104182000113F090017FE090017EF0900180E090B9
:0C419200018AF0900181E0900115F022FC
:1065CB0090025DE064A67071A3E06403706B123DF2
:1065DB00D57001E47063127F74900266E06F7001F6
:1065EB00E4705678AD7614787FF690011F04F09026
:1065FB00025FE02445601024EF601024EF60132449
:10660B003370337F1680067F1780027F18126E72ED
:10661B0080249002A8E030E7057F16126FEA900203
:10662B00A9E030E7057F17126FEA9002AAE030E786
:0A663B00057F18126FEA123D982245
:1000860090025DE064A86003020826A3E0640160B4
:1000960003020826123DD57001E460030208261209
:1000A6007F74900266E06F7001E460030208269098
:1000B600011F7402F078AD7614E4787FF690025F43
:1000C600E0120F1C01770001800101990201A603CD
:1000D60001B10401D50502160602620702A1080253
:1000E600EF09033C1003621103881203B41303DA09
:1000F60014040015042616044C17047118049619E6
:1001060004C32004EF2105362205832305CE2406E9
:100116001D2506772606BD27070B2807592907A69A
:100126003007E77F013DAA0141BB0145CC014DDD0A
:100136000823EE0000081C7F1680067F1780027FCA
:1001460018126E720208239002A8E030E7057F16A7
:10015600126FEA9002A9E030E7057F17126FEA9066
:1001660002AAE020E7030208237F18126FEA0208BA
:1001760023D261C262C263020823206103020823FC
:10018600D264C262123D4130630302082312323543
:10019600020823206103020823C264C26202082304
:1001A600206103020823D2620208232061030208A9
:1001B6002320640302082330620302082390018986
:1001C600E04401F0900260E090011EF00208232056
:1001D6006103020823206403020823306203020835
:1001E60023900188A3E020E00302082330E1030204
:1001F6000823900261E0900108123D7090018B1275
:100206003CDF900264E0900129F090018902052FFD
:1002160020610302082320640302082330620302DC
:100226000823900188A3E020E10302082330E203BB
:10023600020823900260E090012AF0900261E0FE3D
:10024600A3E0900120123CEF900263E090010512BA
:100256003D82E4123D7990018902057C206103020A
:100266000823206403020823306203020823900156
:1002760088A3E020E20302082330E3030208239068
:1002860001A3E0900260123C48900261123C7A9011
:100296000263123C9A9001890205C7206103020895
:1002A6002320640302082330620302082390018896
:1002B600A3E020E30302082330E4030208239002AC
:1002C60060E0900185F0900261E0900112123D70AD
:1002D60090011B123D2E900264E0FF9001A4E4F011
:1002E600A3EFF0900189020616206103020823207D
:1002F6006403020823306203020823900188A3E006
:1003060020E40302082330E5030208239001A5E058
:10031600900260123C2C900261E024FB90011812BE
:100326003D70900190123D57900264E090011DF0DF
:1003360090018902067020610302082320640302EB
:100346000823306203020823900188A3E020E50316
:1003560002082330E6030208230206B720610302DF
:100366000823206403020823306203020823900155
:1003760088A3E020E60302082330E70302082302ED
:100386000705206103020823206403020823306264
:1003960003020823900188E0FEA3E0FF20E70302A2
:1003A6000823EE30E00302082344010204B9206169
:1003B6000302082320640302082330620302082391
:1003C600123D3720E00302082330E10302082344EC
:1003D600020204B9206103020823206403020823F1
:1003E600306203020823123D3720E103020823305E
:1003F600E20302082344040204B92061030208232D
:10040600206403020823306203020823123D3720CA
:10041600E20302082330E30302082344080204B976
:1004260020610302082320640302082330620302CA
:100436000823123D3720E30302082330E4030208B1
:100446002344100204B92061030208232064030236
:100456000823306203020823123D3720E403020812
:100466002330E50302082344208048206103020864
:1004760023206403020823306203020823123D3757
:1004860020E50302082330E60302082344408023C4
:10049600206103020823206403020823306203025A
:1004A6000823123D3720E60302082330E70302083B
:1004B600234480900188F0A3EFF002082320610313
:1004C60002082320640302082330620302082390F3
:1004D6000188E020E70302082390018EE030E00364
:1004E6000208234401F002082320610302082320A6
:1004F600640302082330620302082390018DA3E0FF
:1005060020E00302082330E103020823900262E0A0
:10051600900104F0900263E0900182123D82900106
:1005260006E4F0A3EFF090018EE04402F002082307
:1005360020610302082320640302082330620302B9
:10054600082390018DA3E020E10302082330E20393
:10055600020823900107E0900260123C3A90026183
:10056600E0FEA3E09001A6123D57123DBA9001802D
:10057600123CDF90018EE04404F002082320610360
:100586000208232064030208233062030208239032
:10059600018DA3E020E20302082330E303020823CF
:1005A600900260E0FEA3E0900183123CEF123D71E1
:1005B600900186123D2E900264E090011AF090019F
:1005C6008EE04408F0020823206103020823206419
:1005D6000302082330620302082390018DA3E02062
:1005E600E30302082330E403020823900260123C6E
:1005F6008A900262E0FF1272ED900194123DE09043
:100606000197123D811272ED900198EFF090018EE4
:10061600E04410F00208232061030208232064034B
:10062600020823306203020823123DC220E40302BB
:10063600082330E503020823900260E0FF1272ED02
:1006460090019A123DEA90019BEFF0900262E0FF62
:100656001272ED90019C123DE090019F123D8112B5
:1006660072ED9001A0EFF090018EE04420F00208B8
:100676002320610302082320640302082330620357
:10068600020823123DC220E50302082330E60302D6
:100696000823900260E0FF1272ED9001A1123DEA7C
:1006A600900114EFF0900264E090018FF090018EBB
:1006B600E04440F00208232061030208232064037B
:1006C60002082330620302082390018DA3E020E68E
:1006D6000302082330E703020823900260E090013A
:1006E6007FF0900261E0900128123D70FDEDFF90D1
:1006F6000116EEF0A3123D81123DB190018EE04449
:1007060080F0020823206103020823206403020804
:1007160023306203020823123DC220E703020823A6
:10072600EE30E00302082390010EE0900260123CD6
:1007360056900261E0900110F0900262E090011183
:10074600F0123DBA900102123DA890018DE04401DD
:100756000207E12061030208232064030208233014
:10076600620302082390018DE0FEEE20E0030208FA
:100776002330E103020823C204C207D20CC202C21C
:1007860014900260E0900199F0900261123CB5125B
:100796003DBA900195123DA890018DE04402803B40
:1007A60030617A30647720627490018DE0FEEE301D
:1007B600E16B20E268900260E0900113F090026124
:1007C600E090017EF0900262E090018AF090026370
:1007D600E0900115F090018DE04404F0A3E0F08074
:1007E6003C306129306426206223206320900188F2
:1007F600E0B4FF12A3E0B4FF0D90018DE064077032
:1008060003A3E0F46005123FE28002D263C261C234
:1008160064123D418007123D41C261C264123D9897
:0108260022AF
:107F240090011FE0600E78ADE67009F0C200C24E09
:057F3400FF127E2D226A
:0A80900000C8967D6446321E140AF3
:1051AA00C265E4900304F0900301F022D3EF940A5D
:1051BA00EE6480948022D3EF9414EE64809480226B
:1051CA00D3EF941EEE6480948022D3EF9432EE647F
:1051DA0080948022D3EF9446EE6480948022D3EFA9
:1051EA009464EE6480948022D3EF947DEE6480947C
:1051FA008022D3EF9496EE6480948022D3ED940AB1
:10520A00EC6480948022D3ED9414EC648094802220
:10521A00D3ED941EEC6480948022D3ED9432EC6436
:10522A0080948022D3ED9446EC6480948022D3ED5E
:10523A009464EC6480948022D3ED947DEC64809431
:10524A008022D3ED9496EC6480948022D3EB940A66
:10525A00EA6480948022D3EB9414EA6480948022D6
:10526A00D3EB941EEA6480948022D3EB9432EA64EE
:10527A0080948022D3EB9446EA6480948022D3EB14
:10528A009464EA6480948022D3EB947DEA648094E7
:0C529A008022D3EB9496EA64809480227A
:10782000C266C2671251AAA37405F0900300F07FEC
:107830007512787DEF647860087F7512787DBF19C6
:0F78400008900303E04440F022E4900303F02299
:0E7FD100C2661251AA900300E0900302F02253
:0680D400900302EFF02210
:0680DA00900302E0FF220A
