:10080000496E70757420312048494748205B7175E6
:100810006173692D62696469725D0D0A00496E70C9
:1008200075742031204C4F5720205B7175617369BE
:100830002D62696469725D0D0A00496E70757420DD
:10084000322048494748205B686967682D5A5D0D2A
:100850000A00496E7075742032204C4F5720205B7F
:10086000686967682D5A5D0D0A00496E70757420BD
:10087000332048494748205B6F70656E2D64726174
:10088000696E5D0D0A00496E7075742033204C4FFF
:100890005720205B6F70656E2D647261696E5D0D0F
:0808A0000A002D2D2D0D0A00A8
:1008FB00758EC0E4F5B175B20875C920F5CA75B32C
:10090B000175B401759850F589758DFF758BE8D21B
:02091B008E222A
:080973008F993099FDC2992211
:1009540012093BFF600C120973740129F9E43AFA95
:0309640080EE2200
:10091D00EF1FAC0670011E4C60137D027C007BC77F
:0D092D00DBFEED1D70011C144C70F580E325
:01093A00229A
:1008A8001208FBD2CCD2CDD2C0C2B37BFF30CC066B
:1008B8007A08790080047A08791D1209547BFF3080
:1008C800CD067A08793A80047A0879521209547B5D
:1008D800FF30C0067A08796A80047A087986120996
:1008E800547BFF7A0879A21209547FE87E03120923
:0308F8001D80B8A8
:030000000209678B
:0C096700787FE4F6D8FD7581070208A82F
:10093B00BB010689828A83E0225002E722BBFE02BA
:09094B00E32289828A83E49322ED
:00000001FF
