:0300000002004CAF
:200008000000E2FBEAF2802C0000E0FBEAF08024E6B50202EBF62200E2B50202EBF22200DE
:20002800E0B50202EBF02230F6E0A88220F5D3EAC6F582228B822230F6E6A88220F5D980EE
:01004800CFE8
:0300A5000200490D
:0300490002010BA6
:2000A800AE82AF838E048F051EBEFF011FEC4D60137DC77B027C00DDFE1BBBFF011CEB4CC8
:2000C80070F580E0227F009003E8C0071200A8D0070FBF0A0040F0227E007F00D2A69000B0
:2000E80002C007C0061200A8C2A69000031200A8D006D0070EBE00010FC3EE94D0EF9407D2
:2001080040DA22C2B5C2A7C2A6D2B51200CD1200E0D2A61200CDC2B51200CDC2A71200CD06
:07012800C2A61200CD80E227
:06007B00E478FFF6D8FD59
:200059007900E94400601B7A00900133780175A000E493F2A308B8000205A0D9F4DAF27519
:02007900A0FFE6
:200081007800E84400600A790175A000E4F309D8FC7800E84400600C7900900001E4F0A37D
:0400A100D8FCD9FAB4
:0D004C0075810712012FE582600302004953
:04012F0075820022B3
:00000001FF
