:10080000416C6C20706F737369626C6520686172F3
:1008100064776172652073746174657320666F72AA
:1008200020616C6C2070696E733A0D0A002020659F
:100830006163682070696E2050782E792063616E44
:100840002062652030206F7220310D0A0020206563
:100850006163682066756C6C20706F7274206279B9
:1008600074652050782063616E2062652030783096
:10087000302E2E307846460D0A00202073616D70B0
:100880006C656420706F72747320696E207468697F
:1008900073207363726970743A2050302C20503189
:1008A0002C2050322C2050332C2050342C2050350A
:1008B0000D0A0020207468656F7265746963616C4D
:1008C00020636F6D62696E6174696F6E7320666F0D
:1008D000722034382062697473203D20325E3438CF
:1008E0000D0A003D3078002062000D0A00503000F3
:1008F0005031005032005033005034005035002D3C
:100900002D2D0D0A00436F6D6D616E64733A206882
:100910002F3F2068656C702C207020616C6C2070FB
:100920006F737369626C65207374617465732C20D6
:1009300072207265616420616C6C2070696E732036
:100940006E6F772C206320746F67676C65207374FB
:100950007265616D0D0A00485720636F6E666967A6
:10096000207265616465722028616C6C2070696E0C
:1009700073292072656164790D0A0052454720444D
:10098000554D503A0D0A00202050314153463D301C
:100990007800202050304D31203D3078002020500C
:1009A000304D303D307800202050314D31203D30E9
:1009B0007800202050314D303D30780020205032DA
:1009C0004D31203D307800202050324D303D307880
:1009D00000202050334D31203D307800202050330E
:1009E0004D303D307800202050344D31203D30785E
:1009F00000202050344D303D307800202050354DBF
:100A000031203D307800202050354D303D30780089
:100A100073747265616D3D004F4E0D0A004F46467E
:030A20000D0A00BC
:100BA700758EC0E4F59D7593FFF5947591FFF592E9
:100BB7007595FFF59675B1FFF5B275B3FFF5B47589
:100BC700C9FFF5CA53B1FC53B2FC7580FF7590FF9E
:100BD70075A0FF75B0FF75C0FF75C8FF759850F514
:0A0BE70089758DFF758BE8D28E2210
:080D09008F993099FDC2992277
:070CB200120BF17A0879EA48
:100CB900120C1EFF600C120D09740129F9E43AFAAD
:030CC90080EE2298
:0E0CE600209802C322C298E599120C37D3223F
:100C9400EF1FAC0670011E4C60137D027C007BC705
:0D0CA400DBFEED1D70011C144C70F580E3AB
:010CB1002220
:020BF100AE074D
:100BF300EEC4540FFDC3940AED50052430FF800367
:100C03002437FF120D09EE540FFDC3940AED50056E
:0B0C13002430FF80032437FF020D098E
:020CCC00AE0771
:100CCE007D80ED60125E60047F3180027F30120DF8
:070CDE0009EDC313FD80EBDB
:010CE50022EC
:100C6F007BFF7A087900120CB97A08792D120CB92A
:100C7F007A08794D120CB97A08797A120CB97A0878
:050C8F0079B3020CB96D
:100C4900AC05120CB97BFF7A0879E3120CB9AF0431
:100C5900120BF17A0879E7120CB9AF04120CCC7AAD
:060C69000879EA020CB953
:100B5C007BFF7A0879EDAD80120C497BFF7A08791E
:100B6C00F0AD90120C497BFF7A0879F3ADA0120C12
:100B7C00497BFF7A0879F6ADB0120C497BFF7A08F5
:100B8C0079F9ADC0120C497BFF7A0879FCADC8121B
:0B0B9C000C497BFF7A0879FF020CB9BE
:090D00007BFF7A097905020CB9A8
:100A2300D200120BA77BFF7A097957120CB9120D6A
:100A330000120C6F7BFF7A09797B120CB97A097962
:100A430087120CB9AF9D120CB27A097992120CB9C4
:100A5300AF93120BF17A09799D120CB9AF94120C72
:100A6300B27A0979A7120CB9AF91120BF17A09790D
:100A7300B2120CB9AF92120CB27A0979BC120CB94A
:100A8300AF95120BF17A0979C7120CB9AF96120C14
:100A9300B27A0979D1120CB9AFB1120BF17A097993
:100AA300DC120CB9AFB2120CB27A0979E6120CB9A6
:100AB300AFB3120BF17A0979F1120CB9AFB4120C7E
:100AC300B27A0979FB120CB9AFC9120BF17A0A7920
:100AD30006120CB9AFCA120CB27A0879FF80667B92
:100AE300007A007908120CE65060E5086468600B30
:100AF300E50864486005E508B43F05120D0080DF92
:100B0300E50864706005E508B45005120C6F80CFEA
:100B1300E50864726005E508B45205120B5C80BFFA
:100B2300E50864636005E508B443B4B2007BFF7A6B
:100B33000A7910120CB93000067A0A791880067BFC
:100B4300FF7A0A791D120CB98095300003120B5CF1
:090B53007FF47E01120C948086EF
:03000000020CF4FB
:0C0CF400787FE4F6D8FD758120020A2309
:100C1E00BB010689828A83E0225002E722BBFE02D4
:090C2E00E32289828A83E4932207
:100C3700BB010689828A83F0225002F722BBFE019C
:020C4700F32296
:00000001FF
