:100800004C494D49542055500D0A004C494D49540E
:1008100020444F574E0D0A004C535F55503D002069
:100820004C535F444F574E3D00204D4F544F523D67
:1008300000555000444F574E0053544F50000D0A7E
:10084000004D4F544F522055500D0A004D4F544FFC
:100850005220444F574E0D0A004D4F544F522053D3
:10086000544F500D0A00524541445920753D757052
:1008700020643D646F776E20733D73746F700D0A52
:10088000004C494D4954205550202D2053544F5071
:100890005045440D0A004C494D495420444F574E91
:0D08A000202D2053544F505045440D0A00A8
:070B2500010800C101C1003D
:100A6D00758EC05391CB5392CB43920453B1DF4358
:100A7D00B22053B37F43B480759850E4F589758DDA
:090A8D00FF758BE8D28ED2AF2276
:080B1D008F993099FDC2992265
:100AF200120A42FF600C120B1D740129F9E43AFA42
:030B020080EE2260
:0E0B0500209802C322C298E599120A5BD322FF
:0A0B1300C2B5C2C7C292E4F5082281
:100ABA0030940E120B137BFF7A087900120AF2C3E4
:0C0ACA0022C292D2B5D2C7750801D32217
:100AD60030950E120B137BFF7A08790B120AF2C3BC
:0C0AE60022C2C7D2B5D292750802D322FA
:100997007BFF7A087918120AF23094047F318002BB
:1009A7007F30120B1D7BFF7A08791F120AF23095F0
:1009B700047F3180027F30120B1D7BFF7A08792973
:1009C700120AF2E508B401067A0879318011E508C0
:1009D7007BFFB402067A08793480047A08793912E1
:0B09E7000AF27BFF7A08793E020AF258
:100A9600A2949202A2959203A202300101B34008E9
:100AA600A203300001B3500BA2029201A2039200EE
:030AB6001209978B
:010AB900221A
:100939007B007A007909120B055052E5096475604C
:1009490005E509B45510120ABA503D7BFF7A0879BA
:1009590041120AF28032E50964646005E509B4448C
:1009690010120AD650097BFF7A08794C120AF280D4
:1009790017E50964736005E509B453B4120B137BD9
:0D098900FF7A087959120AF212099780A32B
:01099600223E
:1009F200120A6DD294D295120B13A2949201A2956F
:100A020092007BFF7A087966120AF212099712099C
:100A120039E508B4010E30940B120B137BFF7A08F0
:100A220079818011E508B4021230950F120B137B05
:100A3200FF7A087996120AF2120997120A9680CE64
:030000000208AD46
:0C08AD00787FE4F6D8FD7581200208F485
:100A4200BB010689828A83E0225002E722BBFE02B2
:090A5200E32289828A83E49322E5
:100A5B00BB010689828A83F0225002F722BBFE017A
:020A6B00F32274
:1008B9000209F2E493A3F8E493A34003F68001F25A
:1008C90008DFF48029E493A3F85407240CC8C33340
:1008D900C4540F4420C8834004F456800146F6DF0F
:1008E900E4800B0102040810204080900B25E47E6F
:1008F900019360BCA3FF543F30E509541FFEE49304
:10090900A360010ECF54C025E060A840B8E493A3CA
:10091900FAE493A3F8E493A3C8C582C8CAC583CAF5
:10092900F0A3C8C582C8CAC583CADFE9DEE780BEAD
:010B2C0000C8
:00000001FF
