:10090D004D4F544F522055500D0A004D4F544F52DC
:10091D0020444F574E0D0A004D4F544F5220535403
:10092D004F500D0A0050574D204455545920002565
:10093D000D0A004552523A2073656E6420302D31F8
:10094D00303020666F722050574D2C20752F642F3C
:10095D007320666F72206D6F746F720D0A004552B1
:10096D0052204F564552464C4F570D0A0052656165
:10097D0064792E20753D6D6F746F72207570202017
:10098D00643D6D6F746F7220646F776E2020733DC0
:10099D006D6F746F722073746F702020302D313035
:0E09AD00303D50574D2064757479250D0A00B9
:090B49000112000111000110006D
:03000B00020AF1F5
:100AF100C0E0C0D00512E512C39464400375120032
:100B0100E512C3951150028001C392A7D0D0D0E065
:010B110032B1
:100ABB00758EC05391FB43920453957F439680539D
:100ACB00B1DF43B22053B37F43B480E4F589758C17
:100ADB00FB758AAED2A9D28C759850758DFE758B2D
:060AEB00E0D28ED2AF2222
:080B53008F993099FDC299222F
:100B2800120A47FF600C120B53740129F9E43AFAD0
:030B380080EE222A
:100A8400E4FEEF70057F30020B53EF601A75F00A35
:100A940084E5F02430FDAC060E74162CF8A605EFA0
:100AA40075F00A84FF80E3EE600C1E74162EF8E6DF
:060AB400FF120B5380F15C
:010ABA002219
:0E0B3B00209802C322C298E599120A60D322C4
:070B5B00C2B5C2C7C292221D
:070B6200C292D2B5D2C722F6
:070B6900C2C7D2B5D29222EF
:100800007B007A007913120B3B400302090CE513BD
:1008100064756005E513B4550B120B627BFF7A0912
:10082000790D802AE51364646005E513B4440B1266
:100830000B697BFF7A0979188014E51364736005EE
:10084000E513B4530F120B5B7BFF7A097925120B6A
:10085000280208E3E513640D6009E513640A6003E8
:100860000208E9E5106099D200E4F514F515F9E9FC
:10087000C39510503A740829F8E6FFC39430400637
:10088000EFD394394004C2008025EF3395E0FEEFAA
:1008900024D0FFEE34FFAB07FAAE14AF157C007D19
:1008A0000A120A72EF2BF515EE3AF5140980C030E2
:1008B0000028D3E5159464E51494004006751400EF
:1008C0007515648515117BFF7A097932120B28AFF3
:1008D00011120A847A09793C80067BFF7A097940F3
:1008E000120B28E4F510020800E510C39407500D20
:1008F000AE10051074082EF8A613020800E4F510D7
:0C0900007BFF7A09796B120B28020800BB
:01090C0022C8
:100B1200120ABB120B5BC2A77BFF7A09797A120B0E
:060B22002812080080FB10
:030000000209BB37
:0C09BB00787FE4F6D8FD758120020A0266
:100A4700BB010689828A83E0225002E722BBFE02AD
:090A5700E32289828A83E49322E0
:100A6000BB010689828A83F0225002F722BBFE0175
:020A7000F3226F
:100A7200EF8DF0A4A8F0CF8CF0A428CE8DF0A42E98
:020A8200FE2252
:1009C700020B12E493A3F8E493A34003F68001F229
:1009D70008DFF48029E493A3F85407240CC8C33331
:1009E700C4540F4420C8834004F456800146F6DF00
:1009F700E4800B0102040810204080900B49E47E3C
:100A0700019360BCA3FF543F30E509541FFEE493F4
:100A1700A360010ECF54C025E060A840B8E493A3BB
:100A2700FAE493A3F8E493A3C8C582C8CAC583CAE6
:100A3700F0A3C8C582C8CAC583CADFE9DEE780BE9E
:010B520000A2
:00000001FF
