:100800004C494D49542055500D0A004C494D49540E
:1008100020444F574E0D0A004C535F55503D002069
:100820004C535F444F574E3D002042544E5F55504D
:100830003D002042544E5F444F574E3D00204D4FE7
:10084000544F523D00555000444F574E0053544FA3
:1008500050000D0A0042544E2055502D3E444F5733
:100860004E0D0A0042544E20444F574E2D3E5550D7
:100870000D0A0042544E20424F5448202D2053541C
:100880004F500D0A0042544E2052454C45415345AD
:10089000202D2053544F500D0A004D4F544F5220DD
:1008A00055500D0A004D4F544F5220444F574E0D96
:1008B0000A004D4F544F522053544F500D0A0052CE
:1008C0004541445920753D757020643D646F776ED5
:1008D00020733D73746F700D0A004C494D495420CC
:1008E0005550202D2053544F505045440D0A004C74
:1008F000494D495420444F574E202D2053544F50BA
:060900005045440D0A0001
:0D0C5800010800C103C101C102C104C100B7
:100B9F00758EC05391CB5392CB43920453B1DF4325
:100BAF00B22053B37F43B48053C9DF53CADF53B36B
:100BBF00FE53B4FE759850E4F589758DFF758BE87B
:050BCF00D28ED2AF221E
:080C70008F993099FDC2992211
:100C3700120BD4FF600C120C70740129F9E43AFA14
:030C470080EE221A
:0E0C4A00209802C322C298E599120BEDD32226
:0A0C6600C2B5C2C7C292E4F508222D
:100BFF0030940E120C667BFF7A087900120C37C303
:0C0C0F0022C292D2B5D2C7750801D322D0
:100C1B0030950E120C667BFF7A08790B120C37C3DA
:0C0C2B0022C2C7D2B5D292750802D322B3
:100992007BFF7A087918120C373094047F31800279
:1009A2007F30120C707BFF7A08791F120C3730955A
:1009B200047F3180027F30120C707BFF7A08792924
:1009C200120C3720CD047F3180027F30120C707BF5
:1009D200FF7A087932120C3720C0047F3180027FFF
:1009E20030120C707BFF7A08793D120C37E508B49F
:1009F20001067A0879458011E5087BFFB402067A80
:100A020008794880047A08794D120C377BFF7A08FE
:050A12007952020C37CF
:100B5900A2949205A2959206A2CDB39207A2C0B320
:100B69009208A205300301B34018A206300101B36F
:100B79004010A207300201B34008A208300401B3B3
:100B89005013A2059203A2069201A2079202A2089B
:050B9900920412099214
:010B9E002234
:100A1700A2CDB39205A2C0B3920630051B200618DB
:100A2700E50864026062120C1B505A7BFF7A087952
:100A370055120C37D200804D30061B200518E508EB
:100A470064016044120BFF500B7BFF7A0879641234
:100A57000C37D200802F300517300614E5086028C0
:100A6700120C66C2007BFF7A087973120C37801567
:100A7700300015E5086011120C66C2007BFF7A088A
:080A87007985120C3712099267
:010A8F002244
:100AF5007B007A007909120C4A5058E50964756043
:100B050005E509B45512C200120BFF50417BFF7A6F
:100B150008799A120C378036E50964646005E509A1
:100B2500B44412C200120C1B50097BFF7A0879A548
:100B3500120C378019E50964736005E509B453B0F3
:100B4500120C66C2007BFF7A0879B2120C371209C3
:030B550092809DEE
:010B5800227A
:100A9000120B9FD294D295D2CDD2C0120C66A294E2
:100AA0009203A2959201A2CDB39202A2C0B3920486
:100AB0007BFF7A0879BF120C37120992120AF512DD
:100AC0000A17E508B4011030940D120C66C2007BC1
:100AD000FF7A0879DA8013E508B402143095111210
:100AE0000C66C2007BFF7A0879EF120C371209926C
:050AF000120B5980C744
:03000000020906EC
:0C090600787FE4F6D8FD75812102094DD0
:100BD400BB010689828A83E0225002E722BBFE021F
:090BE400E32289828A83E4932252
:100BED00BB010689828A83F0225002F722BBFE01E7
:020BFD00F322E1
:10091200020A90E493A3F8E493A34003F68001F261
:1009220008DFF48029E493A3F85407240CC8C333E6
:10093200C4540F4420C8834004F456800146F6DFB5
:10094200E4800B0102040810204080900C58E47EE1
:10095200019360BCA3FF543F30E509541FFEE493AA
:10096200A360010ECF54C025E060A840B8E493A371
:10097200FAE493A3F8E493A3C8C582C8CAC583CA9C
:10098200F0A3C8C582C8CAC583CADFE9DEE780BE54
:010C6500008E
:00000001FF
