:1008000050312E342048494748205B717561736927
:100810002D62696469725D0D0A0050312E34204CDE
:100820004F5720205B71756173692D62696469722D
:100830005D0D0A0050312E352048494748205B683D
:100840006967682D5A5D0D0A0050312E35204C4FD6
:100850005720205B686967682D5A5D0D0A002D2DB1
:040860002D0D0A0050
:1008D800758EC0759120E4F592759850F589758DDF
:0708E800FF758BE8D28E22A0
:08090E008F993099FDC2992276
:1008EF001208BFFF600C12090E740129F9E43AFADD
:0308FF0080EE2266
:1008A100EF1FAC0670011E4C60137D027C007BC7FC
:0D08B100DBFEED1D70011C144C70F580E3A2
:0108BE002217
:100864001208D8D294D2957BFF3094067A08790086
:1008740080047A08791A1208EF7BFF3095067A080B
:10088400793480047A0879491208EF7BFF7A087971
:0D0894005E1208EF7FE87E031208A180CA03
:03000000020902F0
:0C090200787FE4F6D8FD758107020864D8
:1008BF00BB010689828A83E0225002E722BBFE0237
:0908CF00E32289828A83E493226A
:00000001FF
