:100800004C494D49542055500D0A004C494D49540E
:1008100020444F574E0D0A0053544F505045440D3D
:100820000A004C535F55503D00204C535F444F57D6
:100830004E3D002042544E5F55503D002042544EE4
:100840005F444F574E3D00204D4F544F523D005591
:100850005000444F574E0053544F50002052414DCA
:10086000503D00414343454C00444543454C004EF8
:100870004F4E450020445554593D00250D0A004275
:10088000544E20424F54482D3E53544F500D0A00B1
:1008900042544E2052454C454153452D3E53544FF2
:1008A000500D0A0042544E2D3E444F574E0D0A0043
:1008B00042544E2D3E55500D0A004D4F544F52207C
:1008C00055500D0A004D4F544F5220444F574E0D76
:1008D0000A004D4F544F5220534D4F4F5448205310
:1008E000544F500D0A004D4F544F5220484152442E
:1008F0002053544F500D0A00524541445920753D34
:10090000757020643D646F776E20733D736D6F6FFB
:1009100074682D73746F7020783D686172642D73F4
:10092000746F700D0A0048572050574D20434350B4
:1009300032206F6E2050322E372C207E32312E36F0
:10094000206B487A2C20382D6269740D0A004C49BE
:100950004D4954205550202D204841524420535495
:100960004F500D0A004C494D495420444F574E20DA
:0E0970002D20484152442053544F500D0A0090
:100F1A00020D0000010900010800010C00020A008C
:0B0F2A0000C103C101C102C104C100ED
:03000B00020F8160
:0D0F8100C0E0050EE50E7002050DD0E03257
:080E7600E4F50C120F8EE4FFFD
:100E7E00EFC394644004E4FE8017C374649FFFE4E0
:100E8E009400FE7C007DFF120B277D64120B39AEA1
:050E9E00078EEC8EFC44
:010EA300222C
:0D0F8E0075FCFF75ECFFE4F5F475DC422204
:060FA300E4F5DCC2A72208
:100D9000758EC0759D035393F343940C5391FB439D
:100DA00092045391F74392084391305392CF539555
:100DB000CF4396305395BF43964053957F439680DB
:100DC00053B1DF43B22053B3FE53B4FE53B3F343E6
:100DD000B40C53B37F43B48053C9DF53CADFE4F587
:100DE00089758CD4758ACDD2A9D28C759850758DA1
:090DF000FF758BE8D28ED2AF2210
:100F3600E5A254CF4420F5A275D902E4F5E9F5F906
:070F4600F5D8D2DE020FA373
:080F9B008F993099FDC29922E3
:100F4D00120AFCFF600C120F9B740129F9E43AFAA6
:030F5D0080EE2201
:100E3F00E4FEEF70057F30020F9BEF601A75F00A2A
:100E4F0084E5F02430FDAC060E74102CF8A605EFE7
:100E5F0075F00A84FF80E3EE600C1E74102EF8E626
:060E6F00FF120F9B80F151
:010E7500225A
:0E0F7300209802C322C298E599120B15D322D2
:100F6000120FA3C2B5C2C7C292E4F509F508F50C89
:030F7000C200229A
:100EFC00E5097004E5086015E5086402600D7508E5
:0E0F0C0002C2AF850D0A850E0BD2AFC20022C5
:100EA40030940E120F607BFF7A087900120F4DC345
:100EB40022120E76C292D2B5D2C775090175080105
:0C0EC400C2AF850D0A850E0BD2AFD32201
:100ED00030950E120F607BFF7A08790B120F4DC30D
:100EE00022120E76C2C7D2B5D292750902750801D8
:0C0EF000C2AF850D0A850E0BD2AFD322D5
:100D2000E508606BC2AFAF0EAE0DD2AFC3EF950B4F
:100D3000FDEE950AFCC3ED9405EC940040518E0A3B
:100D40008F0BE508B40119E50CC394645007050C3A
:100D5000AF0C120E7EE50CC394644033E4F5082218
:100D6000E50864027029E50CD394004007150CAF28
:100D70000C120E7EE50C7017120FA3C2B5C2C7C2CB
:0F0D800092E4F509F5087BFF7A087918120F4DF8
:010D8F002241
:030A4000120F4D45
:100A43007BFF7A087922120F4D3094047F318002A4
:100A53007F30120F9B7BFF7A087929120F4D309557
:100A6300047F3180027F30120F9B7BFF7A0879333A
:100A7300120F4D20CD047F3180027F30120F9B7BFC
:100A8300FF7A08793C120F4D20C0047F3180027F2A
:100A930030120F9B7BFF7A087947120F4DE509B49B
:100AA30001067A08794F8011E5097BFFB402067AC3
:100AB30008795280047A087957120F4D7BFF7A0820
:100AC300795C120F4DE508B401067A087963801149
:100AD300E5087BFFB402067A08796980047A08790D
:100AE3006F120F4D7BFF7A087974120F4DAF0C1202
:090AF3000E3F7A08797B020F4DD9
:100DF900A2949205A2959206A2CDB39207A2C0B37E
:100E09009208A205300301B34018A206300101B3CC
:100E19004010A207300201B34008A208300401B310
:100E29005013A2059203A2069201A2079202A208F8
:050E39009204120A43BF
:010E3E002291
:10097E00E4F50FA2CDB39205A2C0B39206300508DE
:10098E00200605750F02803E300608200505750FFE
:10099E00018033300515300612E5096029120EFC70
:1009AE007BFF7A08797F120A40801B200003020A1F
:1009BE003FE509607CE50864026076120EFC7BFF61
:1009CE007A087990804EE50F6402702DE509701358
:1009DE00E508700F120ED05058D2007BFF7A0879BE
:1009EE00A48031E509B40209E50864026003D2006F
:1009FE0022E5086402603A8035E50F64017032E545
:100A0E00097017E5087013120EA45025D2007BFF53
:100A1E007A0879B0120F4D020A43E509B40109E5CF
:100A2E000864026003D20022E50864026003120E1D
:010A3E00FCBB
:010A3F002294
:100B8E007B007A00790F120F734003020C1DE50FE4
:100B9E0064756006E50F64557015C200E5096002C4
:100BAE00801F120EA450D97BFF7A0879BA8022E5F5
:100BBE000F64646006E50F6444701BC200E50960B3
:100BCE0005120EFC8043120ED050B57BFF7A0879C9
:100BDE00C5120F4D8033E50F64736005E50FB453F6
:100BEE0010C200120EFC7BFF7A0879D2120F4D80D4
:100BFE0018E50F64786006E50F64587083120F6075
:0F0C0E007BFF7A0879E6120F4D120A43020B8E14
:010C1D0022B4
:100CAA00120D90120F36E58054FB4408F580D2935A
:100CBA0043A030C2A6D2CDD2C0120F60A294920332
:100CCA00A2959201A2CDB39202A2C0B392047BFF75
:100CDA007A0879F8120F4D7A097926120A40120B0E
:100CEA008E12097E120D20E509B4010E30940B1202
:100CFA000F607BFF7A09794E8011E509B402123040
:100D0A00950F120F607BFF7A097965120F4D120A4F
:060D1A0043120DF980C830
:03000000020C1ED1
:0C0C1E00787FE4F6D8FD758121020C659A
:100AFC00BB010689828A83E0225002E722BBFE02F8
:090B0C00E32289828A83E493222A
:100B1500BB010689828A83F0225002F722BBFE01BF
:020B2500F322B9
:100B2700EF8DF0A4A8F0CF8CF0A428CE8DF0A42EE2
:020B3700FE229C
:100B3900BC000BBE0029EF8DF084FFADF022E4CCA0
:100B4900F875F008EF2FFFEE33FEEC33FCEE9DEC69
:100B5900984005FCEE9DFE0FD5F0E9E4CEFD22EDAF
:100B6900F8F5F0EE8420D21CFEADF075F008EF2FF9
:100B7900FFED33FD4007985006D5F0F222C398FDEA
:050B89000FD5F0EA2287
:100C2A00020CAAE493A3F8E493A34003F68001F22A
:100C3A0008DFF48029E493A3F85407240CC8C333CB
:100C4A00C4540F4420C8834004F456800146F6DF9A
:100C5A00E4800B0102040810204080900F1AE47E01
:100C6A00019360BCA3FF543F30E509541FFEE4938F
:100C7A00A360010ECF54C025E060A840B8E493A356
:100C8A00FAE493A3F8E493A3C8C582C8CAC583CA81
:100C9A00F0A3C8C582C8CAC583CADFE9DEE780BE39
:010F350000BB
:00000001FF
