:100B79004D4F544F522055500D0A004D4F544F526E
:100B890020444F574E0D0A004D4F544F5220535495
:100B99004F500D0A0050574D2044555459200025F7
:100BA9000D0A004552523A2073656E6420302D318A
:100BB900303020666F722050574D2C20752F642FCE
:100BC9007320666F72206D6F746F720D0A00455243
:100BD90052204F564552464C4F570D0A00526561F7
:100BE90064792E20753D75702020643D646F776EA1
:100BF9002020733D73746F702020302D3130303DCB
:100C090050574D252020414443403530306D733ACB
:100C1900204920560D0A00493D0020563D000D0A85
:010C290000CA
:0D0EB40001140001110002120000011000E5
:03000B00020DF9EA
:100DF900C0E0C0D00514E514C39464400375140021
:100E0900E514C3951150028001C392A7C3E5139459
:100E1900FFE51294FF50080513E51370020512D07F
:040E2900D0D0E03213
:070ECD00759D0375BC802236
:100E6100EF54074488F5BCE5BC30E4FB53BCEFAF5D
:100E7100BDEF75F004A4FFAEF0E5BE5403FDEF4DE8
:020E8100FF224E
:020D8600AB07B9
:100D8800E4F532F531F530F52F120E61E4FAAF03D0
:100D9800120E61E4FCFDE5322FF532E5313EF53106
:100DA800ED3530F530EC352FF52F0ABA08E0AF32C3
:0B0DB800AE31AD30AC2F7803020971A2
:100E9600E511D394004004E51470FCE4FF020D86CE
:050EE9007F01020D86EF
:100DC300758EC05391FB43920453957F4396805392
:100DD300B1DF43B22053B37F43B480E4F589758C0C
:100DE300FB758AAED2A9D28C759850758DFF758B21
:060DF300E8D28ED2AF220F
:030EC200F8E6FF50
:080EC5008F993099FDC29922BA
:100E8300120800FF600C120EC5740129F9E43AFA46
:030E930080EE22CC
:100E2D00E4FEEF70057F30020EC5EF601A75F00A13
:100E3D0084E5F02430FDAC060E74322CF8A605EFD7
:100E4D0075F00A84FF80E3EE60091E74322E120ED7
:030E5D00C280F45C
:010E6000226F
:040D3800AB07AA0655
:100D3C00E4F51AEB4A70057F30020EC5EB4A602AC7
:100D4C007C007D0AAF03AE0212083DED2430FFAEED
:100D5C001A051A74152EF8A6077C007D0AAF03AE8F
:100D6C000212083DAA06AB0780D2E51A600B151AD1
:090D7C007415251A120EC280F153
:010D8500224B
:080CB6008F328E318D308C2F3E
:100CBE00E4F53DFFFEFDFCAB32AA31A930A82FC3EF
:100CCE0012096070057F30020EC5E4FFFEFDFCAB1D
:100CDE0032AA31A930A82FC3120960603AE47B0A08
:100CEE00FAF9F8AF32AE31AD30AC2F1208CEEB249C
:100CFE0030FFAE3D053D74332EF8A607AF32AE3150
:100D0E00AD30AC2FE47B0AFAF9F81208CE8F328E92
:100D1E00318D308C2F80B3E53D600E153D7433253B
:090D2E003DF8E6FF120EC580EE4F
:010D37002299
:0E0EA600209802C322C298E599120819D3229F
:070ED400C2B5C2C7C29222A1
:070EDB00C292D2B5D2C7227A
:070EE200C2C7D2B5D2922273
:1009B1007B007A00792F120EA64003020ABDE52FB3
:1009C10064756005E52FB4550B120EDB7BFF7A0BC6
:1009D1007979802AE52F64646005E52FB4440B1210
:1009E1000EE27BFF7A0B79848014E52F6473600536
:1009F100E52FB4530F120ED47BFF7A0B7991120EAF
:100A010083020A94E52F640D6009E52F640A6003EF
:100A1100020A9AE5106099D200E4F530F531F9E95E
:100A2100C39510503A740829F8E6FFC39430400684
:100A3100EFD394394004C2008025EF3395E0FEEFF7
:100A410024D0FFEE34FFAB07FAAE30AF317C007D2E
:100A51000A12082BEF2BF531EE3AF5300980C03040
:100A61000028D3E5319464E53094004006753000E8
:100A71007531648531117BFF7A0B799E120E83AF3C
:100A810011120E2D7A0B79A880067BFF7A0B79ACB7
:100A9100120E83E4F5100209B1E510C39407500D5D
:100AA100AE10051074082EF8A62F0209B1E4F51056
:0C0AB1007BFF7A0B79D7120E830209B18B
:010ABD002216
:100ABE00E4F525F526120DC3120ECD120ED4C2A7E3
:100ACE007BFF7A0B79E6120E831209B1C3E51394FC
:100ADE0088E512941340F2E4F512F513120E968E79
:100AEE00218F22120EE98E238F2430B51820C703D2
:100AFE00309212E5224521700CE5264525600685CB
:100B0E002521852622E5224521600685212585227F
:100B1E0026AE21AF227C007D601209848F2A8E2999
:100B2E008D288C27AE23AF247C007D401209848F44
:100B3E002E8E2D8D2C8C2B7BFF7A0C7920120E8312
:100B4E00AF2AAE29AD28AC27120CB67BFF7A0C79F2
:100B5E0023120E83AF2EAE2DAD2CAC2B120CB67B0A
:0B0B6E00FF7A0C7927120E83020AD7D1
:03000000020C2AC5
:0C0C2A00787FE4F6D8FD75813D020C7166
:10080000BB010689828A83E0225002E722BBFE02F6
:09081000E32289828A83E4932229
:10081900BB010689828A83F0225002F722BBFE01BE
:02082900F322B8
:10082B00EF8DF0A4A8F0CF8CF0A428CE8DF0A42EE1
:02083B00FE229B
:10083D00BC000BBE0029EF8DF084FFADF022E4CC9F
:10084D00F875F008EF2FFFEE33FEEC33FCEE9DEC68
:10085D00984005FCEE9DFE0FD5F0E9E4CEFD22EDAE
:10086D00F8F5F0EE8420D21CFEADF075F008EF2FF8
:10087D00FFED33FD4007985006D5F0F222C398FDE9
:05088D000FD5F0EA2286
:1008920075F008758200EF2FFFEE33FECD33CDCC1D
:1008A20033CCC58233C5829BED9AEC99E5829840A0
:1008B2000CF582EE9BFEED9AFDEC99FC0FD5F0D67D
:1008C200E4CEFBE4CDFAE4CCF9A88222B800C1B9A7
:1008D2000059BA002DEC8BF084CFCECDFCE5F0CBE5
:1008E200F97818EF2FFFEE33FEED33FDEC33FCEB1E
:1008F20033FB10D703994004EB99FB0FD8E5E4F9D9
:10090200FA227818EF2FFFEE33FEED33FDEC33FCC5
:10091200C933C910D7059BE99A4007EC9BFCE99AB9
:10092200F90FD8E0E4C9FAE4CCFB2275F010EF2FFE
:10093200FFEE33FEED33FDCC33CCC833C810D707FE
:100942009BEC9AE899400AED9BFDEC9AFCE899F839
:0E0952000FD5F0DAE4CDFBE4CCFAE4C8F922CC
:10096000EB9FF5F0EA9E42F0E99D42F0E89C45F0ED
:010970002264
:10097100E8600FECC313FCED13FDEE13FEEF13FF64
:03098100D8F12288
:10098400EC8EF0A4CCC5F0CCCDF8EFA4CEC5F02D00
:10099400FDE43CFCE8A42EC8C5F03DFDE43CFCEFBE
:0D09A400A4FFE5F028FEE43DFDE43CFC224C
:100C3600020ABEE493A3F8E493A34003F68001F20C
:100C460008DFF48029E493A3F85407240CC8C333BF
:100C5600C4540F4420C8834004F456800146F6DF8E
:100C6600E4800B0102040810204080900EB4E47E5C
:100C7600019360BCA3FF543F30E509541FFEE49383
:100C8600A360010ECF54C025E060A840B8E493A34A
:100C9600FAE493A3F8E493A3C8C582C8CAC583CA75
:100CA600F0A3C8C582C8CAC583CADFE9DEE780BE2D
:010EC1000030
:00000001FF
