:10085E00EF1FAC0670011E4C60137D027C007BC73F
:0D086E00DBFEED1D70011C144C70F580E3E5
:01087B00225A
:07088800C2B5C2C7C29222F3
:07088F00C292D2B5D2C722CC
:07089600C2C7D2B5D29222C5
:100839005391FB43920453B1DF43B22053B37F4337
:10084900B48053C9DF53CADF53B3FE53B4FED2CDCC
:05085900D2C002088876
:10080000120839A2CD4003D38001C39200A2C04098
:1008100003D38001C3920130000820010512088F24
:10082000800E300108200005120896800312088807
:090830007F0A7E0012085E80CAF6
:0300000002087C77
:0C087C00787FE4F6D8FD758120020800AA
:00000001FF
