:0300000002004CAF
:100008000000E2FBEAF2802C0000E0FBEAF080242A
:10001800E6B50202EBF62200E2B50202EBF222009C
:10002800E0B50202EBF02230F6E0A88220F5D3EA30
:10003800C6F582228B822230F6E6A88220F5D98086
:01004800CFE8
:0300A5000200490D
:030049000200E0D2
:1000A800AE82AF838E048F051EBEFF011FEC4D602C
:1000B800137DC77B027C00DDFE1BBBFF011CEB4CE4
:1000C80070F580E0227F009003E8C0071200A8D0F6
:1000D800070FBF0A0040F022C2B5D292D2B5120073
:0800E800CDC2B51200CD80F479
:06007B00E478FFF6D8FD59
:100059007900E94400601B7A009000F4780175A0EA
:1000690000E493F2A308B8000205A0D9F4DAF27506
:02007900A0FFE6
:100081007800E84400600A790175A000E4F309D81A
:10009100FC7800E84400600C7900900001E4F0A3D2
:0400A100D8FCD9FAB4
:0D004C007581071200F0E582600302004993
:0400F00075820022F3
:00000001FF
