:100800004C494D49542055500D0A004C494D49540E
:1008100020444F574E0D0A0053544F505045440D3D
:100820000A004C535F55503D00204C535F444F57D6
:100830004E3D002042544E5F55503D002042544EE4
:100840005F444F574E3D00204D4F544F523D005591
:100850005000444F574E0053544F50002052414DCA
:10086000503D00414343454C00444543454C004EF8
:100870004F4E450020445554593D00250D0A004275
:10088000544E20424F54482D3E53544F500D0A00B1
:1008900042544E2052454C454153452D3E53544FF2
:1008A000500D0A0042544E2D3E444F574E0D0A0043
:1008B00042544E2D3E55500D0A004D4F544F52207C
:1008C00055500D0A004D4F544F5220444F574E0D76
:1008D0000A004D4F544F5220534D4F4F5448205310
:1008E000544F500D0A004D4F544F5220484152442E
:1008F0002053544F500D0A00524541445920753D34
:10090000757020643D646F776E20733D736D6F6FFB
:1009100074682D73746F7020783D686172642D73F4
:10092000746F700D0A0048572050574D20434350B4
:1009300032206F6E2050322E372C207E32312E36F0
:10094000206B487A2C20382D6269740D0A004C49BE
:100950004D4954205550202D204841524420535495
:100960004F500D0A004C494D495420444F574E20DA
:0E0970002D20484152442053544F500D0A0090
:100EEE00020D0000010900010800010C00020A00B9
:0B0EFE0000C103C101C102C104C1001A
:03000B00020F558C
:0D0F5500C0E0050EE50E7002050DD0E03283
:080E4A00E4F50C120F62E4FF55
:100E5200EFC394644004E4FE8017C374649FFFE40C
:100E62009400FE7C007DFF120B277D64120B39AECD
:050E7200078EEC8EFC70
:010E77002258
:0D0F620075FCFF75ECFFE4F5F475DC422230
:060F7700E4F5DCC2A72234
:100D8500758EC05391FB4392045391CF5392CF5329
:100D9500957F43968053B1DF43B22053B37F43B46D
:100DA5008053C9DF53CADF53B3FE53B4FEE4F5895C
:100DB500758CD4758ACDD2A9D28C759850758DFF56
:080DC500758BE8D28ED2AF223B
:100F0A00E5A254CF4420F5A275D902E4F5E9F5F932
:070F1A00F5D8D2DE020F77CB
:080F6F008F993099FDC299220F
:100F2100120AFCFF600C120F6F740129F9E43AFAFE
:030F310080EE222D
:100E1300E4FEEF70057F30020F6FEF601A75F00A82
:100E230084E5F02430FDAC060E74102CF8A605EF13
:100E330075F00A84FF80E3EE600C1E74102EF8E652
:060E4300FF120F6F80F1A9
:010E49002286
:0E0F4700209802C322C298E599120B15D322FE
:100F3400120F77C2B5C2C7C292E4F509F508F50CE1
:030F4400C20022C6
:100ED000E5097004E5086015E5086402600D750811
:0E0EE00002C2AF850D0A850E0BD2AFC20022F2
:100E780030940E120F347BFF7A087900120F21C3C9
:100E880022120E4AC292D2B5D2C77509017508015D
:0C0E9800C2AF850D0A850E0BD2AFD3222D
:100EA40030950E120F347BFF7A08790B120F21C391
:100EB40022120E4AC2C7D2B5D29275090275080130
:0C0EC400C2AF850D0A850E0BD2AFD32201
:100CAA00E508606BC2AFAF0EAE0DD2AFC3EF950BC6
:100CBA00FDEE950AFCC3ED9405EC940040518E0AB2
:100CCA008F0BE508B40119E50CC394645007050CB1
:100CDA00AF0C120E52E50CC394644033E4F50822BB
:100CEA00E50864027029E50CD394004007150CAF9F
:100CFA000C120E52E50C7017120F77C2B5C2C7C29A
:0F0D0A0092E4F509F5087BFF7A087918120F219A
:010D190022B7
:030A4000120F2171
:100A43007BFF7A087922120F213094047F318002D0
:100A53007F30120F6F7BFF7A087929120F213095AF
:100A6300047F3180027F30120F6F7BFF7A08793366
:100A7300120F2120CD047F3180027F30120F6F7B54
:100A8300FF7A08793C120F2120C0047F3180027F56
:100A930030120F6F7BFF7A087947120F21E509B4F3
:100AA30001067A08794F8011E5097BFFB402067AC3
:100AB30008795280047A087957120F217BFF7A084C
:100AC300795C120F21E508B401067A087963801175
:100AD300E5087BFFB402067A08796980047A08790D
:100AE3006F120F217BFF7A087974120F21AF0C125A
:090AF3000E137A08797B020F2131
:100DCD00A2949205A2959206A2CDB39207A2C0B3AA
:100DDD009208A205300301B34018A206300101B3F9
:100DED004010A207300201B34008A208300401B33D
:100DFD005013A2059203A2069201A2079202A20825
:050E0D009204120A43EB
:010E120022BD
:10097E00E4F50FA2CDB39205A2C0B39206300508DE
:10098E00200605750F02803E300608200505750FFE
:10099E00018033300515300612E5096029120ED09C
:1009AE007BFF7A08797F120A40801B200003020A1F
:1009BE003FE509607CE50864026076120ED07BFF8D
:1009CE007A087990804EE50F6402702DE509701358
:1009DE00E508700F120EA45058D2007BFF7A0879EA
:1009EE00A48031E509B40209E50864026003D2006F
:1009FE0022E5086402603A8035E50F64017032E545
:100A0E00097017E5087013120E785025D2007BFF7F
:100A1E007A0879B0120F21020A43E509B40109E5FB
:100A2E000864026003D20022E50864026003120E1D
:010A3E00D0E7
:010A3F002294
:100B8E007B007A00790F120F474003020C1DE50F10
:100B9E0064756006E50F64557015C200E5096002C4
:100BAE00801F120E7850D97BFF7A0879BA8022E521
:100BBE000F64646006E50F6444701BC200E50960B3
:100BCE0005120ED08043120EA450B57BFF7A087921
:100BDE00C5120F218033E50F64736005E50FB45322
:100BEE0010C200120ED07BFF7A0879D2120F21802C
:100BFE0018E50F64786006E50F64587083120F34A1
:0F0C0E007BFF7A0879E6120F21120A43020B8E40
:010C1D0022B4
:100D1A00120D85120F0AD294D295D2CDD2C0120FDB
:100D2A0034A2949203A2959201A2CDB39202A2C0D8
:100D3A00B392047BFF7A0879F8120F217A0979268F
:100D4A00120A40120B8E12097E120CAAE509B4018E
:100D5A000E30940B120F347BFF7A09794E8011E51D
:100D6A0009B4021230950F120F347BFF7A097965A4
:0B0D7A00120F21120A43120DCD80C899
:03000000020C1ED1
:0C0C1E00787FE4F6D8FD758121020C659A
:100AFC00BB010689828A83E0225002E722BBFE02F8
:090B0C00E32289828A83E493222A
:100B1500BB010689828A83F0225002F722BBFE01BF
:020B2500F322B9
:100B2700EF8DF0A4A8F0CF8CF0A428CE8DF0A42EE2
:020B3700FE229C
:100B3900BC000BBE0029EF8DF084FFADF022E4CCA0
:100B4900F875F008EF2FFFEE33FEEC33FCEE9DEC69
:100B5900984005FCEE9DFE0FD5F0E9E4CEFD22EDAF
:100B6900F8F5F0EE8420D21CFEADF075F008EF2FF9
:100B7900FFED33FD4007985006D5F0F222C398FDEA
:050B89000FD5F0EA2287
:100C2A00020D1AE493A3F8E493A34003F68001F2B9
:100C3A0008DFF48029E493A3F85407240CC8C333CB
:100C4A00C4540F4420C8834004F456800146F6DF9A
:100C5A00E4800B0102040810204080900EEEE47E2E
:100C6A00019360BCA3FF543F30E509541FFEE4938F
:100C7A00A360010ECF54C025E060A840B8E493A356
:100C8A00FAE493A3F8E493A3C8C582C8CAC583CA81
:100C9A00F0A3C8C582C8CAC583CADFE9DEE780BE39
:010F090000E7
:00000001FF
