:100D7E00504F5320002054415247455420002048E4
:100D8E00414C4C20000D0A005A45524F45440D0A65
:100D9E000054415247455420534554200045525269
:100DAE000D0A00455252204F564552464C4F570D94
:100DBE000A00506F736974696F6E20636F6E747280
:100DCE006F6C2072656164792E2053656E6420739A
:100DDE0069676E6564207461726765742C20732C6C
:090DEE00206F72207A2E0D0A001C
:100F2C00044E00000000045200000000014D00C1FE
:040F3C0000014C0064
:100EAA00758EC05391CB5392CB43920443912053F6
:100EBA00B1DF43B22053B37F43B480759850E4F551
:0A0ECA0089758DFE758BE0D28E2233
:080F6F008F993099FDC299220F
:100F4100120800FF600C120F6F740129F9E43AFADC
:030F510080EE220D
:0D0BA5007BFF120F41AF55AE54AD53AC5263
:080BB2008F2B8E2A8D298C285F
:100BBA00E4F537EC33501A7F2D120F6FAF2BAE2AA4
:100BCA00AD29AC281209758F3B8E3A8D398C388045
:100BDA000C852B3B852A3A852939852838E4FFFE7E
:100BEA00FDFCAB3BAA3AA939A838C312099970058A
:100BFA007F30020F6FE4FFFEFDFCAB3BAA3AA93936
:100C0A00A838C31209996039E47B0AFAF9F8AF3BAC
:100C1A00AE3AAD39AC381208E3EB2430FF742C2518
:100C2A0037F8A6070537AF3BAE3AAD39AC38E47BA7
:100C3A000AFAF9F81208E38F3B8E3A8D398C38801C
:100C4A00B4E537600E1537742C2537F8E6FF120F16
:030C5A006F80EEBA
:010C5D002274
:0E0F5400209802C322C298E599120846D322C3
:070F7700C2B5C2C7C29222FD
:070F7E00C292D2B5D2C722D6
:070F8500C2C7D2B5D29222CF
:0C0F6200E4FF3094010F309503430702B8
:010F6E002260
:100ED400EF14600D14601214600B24037012E4808C
:100EE4000A74018006740280027403120846D32235
:020EF400C32217
:100F1400EF045403B505037F0122EF24035403B502
:080F240005037FFF227F00227C
:100DF700120F627B007A007923120ED4505F200015
:100E07000685234DD20022E523654D6050AD23AF03
:100E17004D120F148F2485234DD3E52464809480CD
:100E2700401AE4FAF9F8E5512401F551EA3550F58D
:100E370050E9354FF54FE8354EF54E22C3E52464AA
:100E4700809480501874FF2551F551E55034FFF513
:0D0E570050E54F34FFF54FE54E34FFF54EEA
:010E6400226B
:100E65007BFF7A0D797E120F41AF51AE50AD4FAC7D
:100E75004E120BB27A0D7983120BA57BFF7A0D7991
:100E85008C120F413094047F3180027F30120F6F36
:100E95003095047F3180027F30120F6F7BFF7A0D12
:050EA5007993020F41EA
:0809E8008B288A29892A8D2B36
:1009F000E4F52FC201F533F532F531F530E52B7012
:100A000002C322AB28AA29A92A852F827583001246
:100A10000819FFB42D06D201052F8006EFB42B0272
:100A2000052FE52FC3952B400122E52FC3952B50B1
:100A300073AB28AA29A92A852F8275830012081969
:100A4000FFC394304006EFD394394002C322AB2851
:100A5000AA29A92A852F82758300120819FF3395C8
:100A6000E0FEEF24D0FFEE34FFFE3395E0FDFCC046
:100A700004C005C006C007E47F0AFEFDFCAB33AA34
:100A800032A931A830120858D003D002D001D000CA
:100A9000EF2BF533EE3AF532ED39F531EC38F53030
:100AA000052F8086300113AF33AE32AD31AC30123A
:100AB00009758F338E328D318C30AF33AE32AD311C
:0C0AC000AC30AB2CAA2DA92E1209AAD331
:010ACC002207
:100ACD007B007A007923120F544003020BA4E52317
:100ADD00640D6009E523640A6003020B70E54C6048
:100AED00DFB4010DE53C64736065E53CB4530280F1
:100AFD005EE54CB40127E53C647A6005E53CB45AEB
:100B0D001CE4F551F550F54FF54EF555F554F553EB
:100B1D00F5527BFF7A0D7996120F418032752C00BC
:100B2D00752D00752E247B007A00793CAD4C120991
:100B3D00E850218527558526548525538524527ADD
:100B4D000D799F120BA57BFF7A0D7993120F411230
:100B5D000E6580097BFF7A0D79AB120F41E4F54CE0
:100B6D00020ACDE52364207003020ACDE523640952
:100B7D007003020ACDE54CC3940F500C743C254C08
:100B8D00F8A623054C020ACDE4F54C7BFF7A0D79CE
:070B9D00B1120F41020ACD65
:010BA400222E
:100EF600EF1FAC0670011E4C60137D027C007BC7A1
:0D0F0600DBFEED1D70011C144C70F580E346
:010F130022BB
:100C5E00E4F521F522120EAAD294D295120F771234
:100C6E000DF77BFF7A0D79C0120F41120E65120A35
:100C7E00CD120DF7E55524FBFFE55434FFFEE55389
:100C8E0034FFFDE55234FFFCAB51AA50A94FA84EDC
:100C9E00C31209835005120F7E8027E5552405FFE8
:100CAE00E43554FEE43553FDE43552FCAB51AA5005
:100CBE00A94FA84ED31209834005120F8580031247
:100CCE000F770522E52270020521C39464E5219475
:100CDE00004008E4F521F522120E657F0A7E00120F
:040CEE000EF6808AF4
:03000000020CF2FD
:0C0CF200787FE4F6D8FD758155020D39BD
:10080000BB010689828A83E0225002E722BBFE02F6
:09081000E32289828A83E4932229
:10081900BB010CE58229F582E5833AF583E0225094
:1008290006E92582F8E622BBFE06E92582F8E222DE
:0D083900E58229F582E5833AF583E49322F8
:10084600BB010689828A83F0225002F722BBFE0191
:02085600F3228B
:10085800E88FF0A4CC8BF0A42CFCE98EF0A42CFC3F
:100868008AF0EDA42CFCEA8EF0A4CDA8F08BF0A4BD
:100878002DCC3825F0FDE98FF0A42CCD35F0FCEB1C
:100888008EF0A4FEA9F0EB8FF0A4CFC5F02ECD39E1
:0F089800FEE43CFCEAA42DCE35F0FDE43CFC224E
:1008A70075F008758200EF2FFFEE33FECD33CDCC08
:1008B70033CCC58233C5829BED9AEC99E58298408B
:1008C7000CF582EE9BFEED9AFDEC99FC0FD5F0D668
:1008D700E4CEFBE4CDFAE4CCF9A88222B800C1B992
:1008E7000059BA002DEC8BF084CFCECDFCE5F0CBD0
:1008F700F97818EF2FFFEE33FEED33FDEC33FCEB09
:1009070033FB10D703994004EB99FB0FD8E5E4F9C3
:10091700FA227818EF2FFFEE33FEED33FDEC33FCB0
:10092700C933C910D7059BE99A4007EC9BFCE99AA4
:10093700F90FD8E0E4C9FAE4CCFB2275F010EF2FE9
:10094700FFEE33FEED33FDCC33CCC833C810D707E9
:100957009BEC9AE899400AED9BFDEC9AFCE899F824
:0E0967000FD5F0DAE4CDFBE4CCFAE4C8F922B7
:0E097500C3E49FFFE49EFEE49DFDE49CFC2293
:10098300EB9FF5F0EA9E42F0E99D42F0EC6480C8EB
:0609930064809845F0228B
:10099900EB9FF5F0EA9E42F0E99D42F0E89C45F0B4
:0109A900222B
:1009AA00BB010789828A830209D05005E9F8020946
:0A09BA00C4BBFE05E9F80209DC22C7
:100CFE00020C5EE493A3F8E493A34003F68001F2A2
:100D0E0008DFF48029E493A3F85407240CC8C333F6
:100D1E00C4540F4420C8834004F456800146F6DFC5
:100D2E00E4800B0102040810204080900F2CE47E1A
:100D3E00019360BCA3FF543F30E509541FFEE493BA
:100D4E00A360010ECF54C025E060A840B8E493A381
:100D5E00FAE493A3F8E493A3C8C582C8CAC583CAAC
:100D6E00F0A3C8C582C8CAC583CADFE9DEE780BE64
:010F400000B0
:0C09C400ECF608EDF608EEF608EFF6225F
:0C09D000ECF0A3EDF0A3EEF0A3EFF0229A
:0C09DC00ECF208EDF208EEF208EFF22257
:00000001FF
