:1008000050322E362074657374207374617274656F
:10081000642E0D0A0050322E36204143544956456D
:100820000D0A0050322E36204E4F54204143544979
:0508300056450D0A0011
:1008B100758EC0759850E4F589758DFF758BE8D2FA
:0208C1008E2285
:0808DD008F993099FDC29922A8
:10089E00120885FF600C1208DD740129F9E43AFA9A
:0308AE0080EE22B7
:10086700EF1FAC0670011E4C60137D027C007BC736
:0D087700DBFEED1D70011C144C70F580E3DC
:010884002251
:0D08C300E4FA7FE87E031208670ABA0AF51E
:0108D0002205
:100835007596FFE4F5951208B1C2A67BFF7A087993
:100845000012089ED2A67BFF7A08791512089E121F
:1008550008C3C2A67BFF7A08792312089E1208C333
:0208650080E22F
:030000000208D122
:0C08D100787FE4F6D8FD75810702083539
:10088500BB010689828A83E0225002E722BBFE0271
:09089500E32289828A83E49322A4
:00000001FF
